{
  "_format": "hh-sol-artifact-1",
  "contractName": "BitCaffein",
  "sourceName": "contracts/BitCaffein.sol",
  "abi": [
    {
      "inputs": [],
      "stateMutability": "nonpayable",
      "type": "constructor"
    },
    {
      "inputs": [
        {
          "internalType": "uint256",
          "name": "campaignId",
          "type": "uint256"
        }
      ],
      "name": "CampaignNotFound",
      "type": "error"
    },
    {
      "inputs": [
        {
          "internalType": "uint256",
          "name": "campaignId",
          "type": "uint256"
        },
        {
          "internalType": "string",
          "name": "text",
          "type": "string"
        }
      ],
      "name": "InsufficientDonation",
      "type": "error"
    },
    {
      "inputs": [
        {
          "internalType": "address",
          "name": "caller",
          "type": "address"
        },
        {
          "internalType": "string",
          "name": "text",
          "type": "string"
        }
      ],
      "name": "Unauthorized",
      "type": "error"
    },
    {
      "anonymous": false,
      "inputs": [
        {
          "indexed": false,
          "internalType": "uint256",
          "name": "campaignId",
          "type": "uint256"
        },
        {
          "indexed": false,
          "internalType": "address",
          "name": "creator",
          "type": "address"
        },
        {
          "indexed": false,
          "internalType": "string",
          "name": "title",
          "type": "string"
        },
        {
          "indexed": false,
          "internalType": "uint256",
          "name": "goalAmount",
          "type": "uint256"
        }
      ],
      "name": "CampaignCreated",
      "type": "event"
    },
    {
      "anonymous": false,
      "inputs": [
        {
          "indexed": false,
          "internalType": "uint256",
          "name": "campaignId",
          "type": "uint256"
        },
        {
          "indexed": false,
          "internalType": "string",
          "name": "newTitle",
          "type": "string"
        },
        {
          "indexed": false,
          "internalType": "string",
          "name": "newDescription",
          "type": "string"
        }
      ],
      "name": "CampaignUpdated",
      "type": "event"
    },
    {
      "anonymous": false,
      "inputs": [
        {
          "indexed": false,
          "internalType": "uint256",
          "name": "campaignId",
          "type": "uint256"
        },
        {
          "indexed": false,
          "internalType": "address",
          "name": "donor",
          "type": "address"
        },
        {
          "indexed": false,
          "internalType": "uint256",
          "name": "amount",
          "type": "uint256"
        }
      ],
      "name": "DonationReceived",
      "type": "event"
    },
    {
      "anonymous": false,
      "inputs": [
        {
          "indexed": false,
          "internalType": "uint256",
          "name": "campaignId",
          "type": "uint256"
        },
        {
          "indexed": false,
          "internalType": "address",
          "name": "donor",
          "type": "address"
        },
        {
          "indexed": false,
          "internalType": "uint256",
          "name": "amount",
          "type": "uint256"
        }
      ],
      "name": "DonationWithdrawn",
      "type": "event"
    },
    {
      "anonymous": false,
      "inputs": [
        {
          "indexed": false,
          "internalType": "address",
          "name": "user",
          "type": "address"
        },
        {
          "indexed": false,
          "internalType": "uint256",
          "name": "newReputation",
          "type": "uint256"
        }
      ],
      "name": "ReputationUpdated",
      "type": "event"
    },
    {
      "inputs": [],
      "name": "campaignCounter",
      "outputs": [
        {
          "internalType": "uint256",
          "name": "",
          "type": "uint256"
        }
      ],
      "stateMutability": "view",
      "type": "function"
    },
    {
      "inputs": [
        {
          "internalType": "uint256",
          "name": "",
          "type": "uint256"
        }
      ],
      "name": "campaigns",
      "outputs": [
        {
          "internalType": "uint256",
          "name": "id",
          "type": "uint256"
        },
        {
          "internalType": "address",
          "name": "creator",
          "type": "address"
        },
        {
          "internalType": "string",
          "name": "creatorName",
          "type": "string"
        },
        {
          "internalType": "string",
          "name": "creatorJob",
          "type": "string"
        },
        {
          "internalType": "string",
          "name": "title",
          "type": "string"
        },
        {
          "internalType": "string",
          "name": "description",
          "type": "string"
        },
        {
          "internalType": "uint256",
          "name": "totalAmount",
          "type": "uint256"
        },
        {
          "internalType": "uint256",
          "name": "startTime",
          "type": "uint256"
        }
      ],
      "stateMutability": "view",
      "type": "function"
    },
    {
      "inputs": [
        {
          "internalType": "string",
          "name": "title",
          "type": "string"
        },
        {
          "internalType": "string",
          "name": "description",
          "type": "string"
        },
        {
          "internalType": "string",
          "name": "creatorName",
          "type": "string"
        },
        {
          "internalType": "string",
          "name": "creatorJob",
          "type": "string"
        },
        {
          "internalType": "uint256",
          "name": "goalAmount",
          "type": "uint256"
        }
      ],
      "name": "createCampaign",
      "outputs": [],
      "stateMutability": "nonpayable",
      "type": "function"
    },
    {
      "inputs": [
        {
          "internalType": "uint256",
          "name": "campaignId",
          "type": "uint256"
        }
      ],
      "name": "donation",
      "outputs": [],
      "stateMutability": "payable",
      "type": "function"
    },
    {
      "inputs": [
        {
          "internalType": "uint256",
          "name": "",
          "type": "uint256"
        },
        {
          "internalType": "address",
          "name": "",
          "type": "address"
        }
      ],
      "name": "donorAmounts",
      "outputs": [
        {
          "internalType": "uint256",
          "name": "",
          "type": "uint256"
        }
      ],
      "stateMutability": "view",
      "type": "function"
    },
    {
      "inputs": [
        {
          "internalType": "uint256",
          "name": "",
          "type": "uint256"
        },
        {
          "internalType": "uint256",
          "name": "",
          "type": "uint256"
        }
      ],
      "name": "donors",
      "outputs": [
        {
          "internalType": "address",
          "name": "",
          "type": "address"
        }
      ],
      "stateMutability": "view",
      "type": "function"
    },
    {
      "inputs": [
        {
          "internalType": "address",
          "name": "user",
          "type": "address"
        }
      ],
      "name": "getMyCampaigns",
      "outputs": [
        {
          "internalType": "uint256[]",
          "name": "",
          "type": "uint256[]"
        }
      ],
      "stateMutability": "view",
      "type": "function"
    },
    {
      "inputs": [],
      "name": "getOwner",
      "outputs": [
        {
          "internalType": "address",
          "name": "",
          "type": "address"
        }
      ],
      "stateMutability": "view",
      "type": "function"
    },
    {
      "inputs": [
        {
          "internalType": "address",
          "name": "",
          "type": "address"
        },
        {
          "internalType": "uint256",
          "name": "",
          "type": "uint256"
        }
      ],
      "name": "myCampaigns",
      "outputs": [
        {
          "internalType": "uint256",
          "name": "",
          "type": "uint256"
        }
      ],
      "stateMutability": "view",
      "type": "function"
    },
    {
      "inputs": [],
      "name": "owner",
      "outputs": [
        {
          "internalType": "address",
          "name": "",
          "type": "address"
        }
      ],
      "stateMutability": "view",
      "type": "function"
    },
    {
      "inputs": [
        {
          "internalType": "address",
          "name": "",
          "type": "address"
        }
      ],
      "name": "reputations",
      "outputs": [
        {
          "internalType": "uint256",
          "name": "",
          "type": "uint256"
        }
      ],
      "stateMutability": "view",
      "type": "function"
    },
    {
      "inputs": [],
      "name": "test",
      "outputs": [
        {
          "internalType": "string",
          "name": "",
          "type": "string"
        }
      ],
      "stateMutability": "pure",
      "type": "function"
    },
    {
      "inputs": [
        {
          "internalType": "uint256",
          "name": "campaignId",
          "type": "uint256"
        },
        {
          "internalType": "string",
          "name": "newTitle",
          "type": "string"
        },
        {
          "internalType": "string",
          "name": "newDescription",
          "type": "string"
        }
      ],
      "name": "updateCampaign",
      "outputs": [],
      "stateMutability": "nonpayable",
      "type": "function"
    },
    {
      "inputs": [
        {
          "internalType": "address",
          "name": "user",
          "type": "address"
        },
        {
          "internalType": "uint256",
          "name": "newReputation",
          "type": "uint256"
        }
      ],
      "name": "updateReputation",
      "outputs": [],
      "stateMutability": "nonpayable",
      "type": "function"
    },
    {
      "inputs": [
        {
          "internalType": "uint256",
          "name": "campaignId",
          "type": "uint256"
        }
      ],
      "name": "withdrawDonations",
      "outputs": [],
      "stateMutability": "nonpayable",
      "type": "function"
    }
  ],
  "bytecode": "0x6080604052600060015534801561001557600080fd5b50336000806101000a81548173ffffffffffffffffffffffffffffffffffffffff021916908373ffffffffffffffffffffffffffffffffffffffff160217905550611b71806100656000396000f3fe6080604052600436106100e85760003560e01c806383bd62dd1161008a578063f5c91a0811610059578063f5c91a0814610333578063f8a8fd6d1461035c578063fca604d714610387578063fdac3254146103b2576100e8565b806383bd62dd14610263578063893d20e8146102a05780638da5cb5b146102cb578063ccc0bde4146102f6576100e8565b8063388a7ec1116100c6578063388a7ec1146101975780634bc79a2e146101c057806364c90966146101fd5780637a2453d91461023a576100e8565b806306fa15a7146100ed5780631026373f1461012a578063141961bc14610153575b600080fd5b3480156100f957600080fd5b50610114600480360381019061010f9190610fa6565b6103ce565b6040516101219190610fec565b60405180910390f35b34801561013657600080fd5b50610151600480360381019061014c9190611179565b6103e6565b005b34801561015f57600080fd5b5061017a60048036038101906101759190611204565b61053f565b60405161018e9897969594939291906112bf565b60405180910390f35b3480156101a357600080fd5b506101be60048036038101906101b99190611204565b6107c7565b005b3480156101cc57600080fd5b506101e760048036038101906101e29190611359565b610959565b6040516101f49190610fec565b60405180910390f35b34801561020957600080fd5b50610224600480360381019061021f9190610fa6565b61098a565b6040516102319190611457565b60405180910390f35b34801561024657600080fd5b50610261600480360381019061025c9190611479565b610a21565b005b34801561026f57600080fd5b5061028a60048036038101906102859190611564565b610bb2565b60405161029791906115a4565b60405180910390f35b3480156102ac57600080fd5b506102b5610c00565b6040516102c291906115a4565b60405180910390f35b3480156102d757600080fd5b506102e0610c29565b6040516102ed91906115a4565b60405180910390f35b34801561030257600080fd5b5061031d600480360381019061031891906115bf565b610c4d565b60405161032a9190610fec565b60405180910390f35b34801561033f57600080fd5b5061035a60048036038101906103559190611359565b610c72565b005b34801561036857600080fd5b50610371610cf3565b60405161037e91906115ff565b60405180910390f35b34801561039357600080fd5b5061039c610d30565b6040516103a99190610fec565b60405180910390f35b6103cc60048036038101906103c79190611204565b610d36565b005b60066020528060005260406000206000915090505481565b6000600260008581526020019081526020016000209050600081600001540361044657836040517f2c067cd700000000000000000000000000000000000000000000000000000000815260040161043d9190610fec565b60405180910390fd5b3373ffffffffffffffffffffffffffffffffffffffff168160010160009054906101000a900473ffffffffffffffffffffffffffffffffffffffff1673ffffffffffffffffffffffffffffffffffffffff16146104da57336040517fa35b150b0000000000000000000000000000000000000000000000000000000081526004016104d19190611693565b60405180910390fd5b828160040190816104eb91906118cd565b50818160050190816104fd91906118cd565b507fdc77f154e3ab7d771db26c038d44428f67b6aa1cfb32f824982d2300ba6b090a8484846040516105319392919061199f565b60405180910390a150505050565b60026020528060005260406000206000915090508060000154908060010160009054906101000a900473ffffffffffffffffffffffffffffffffffffffff169080600201805461058e906116f0565b80601f01602080910402602001604051908101604052809291908181526020018280546105ba906116f0565b80156106075780601f106105dc57610100808354040283529160200191610607565b820191906000526020600020905b8154815290600101906020018083116105ea57829003601f168201915b50505050509080600301805461061c906116f0565b80601f0160208091040260200160405190810160405280929190818152602001828054610648906116f0565b80156106955780601f1061066a57610100808354040283529160200191610695565b820191906000526020600020905b81548152906001019060200180831161067857829003601f168201915b5050505050908060040180546106aa906116f0565b80601f01602080910402602001604051908101604052809291908181526020018280546106d6906116f0565b80156107235780601f106106f857610100808354040283529160200191610723565b820191906000526020600020905b81548152906001019060200180831161070657829003601f168201915b505050505090806005018054610738906116f0565b80601f0160208091040260200160405190810160405280929190818152602001828054610764906116f0565b80156107b15780601f10610786576101008083540402835291602001916107b1565b820191906000526020600020905b81548152906001019060200180831161079457829003601f168201915b5050505050908060060154908060070154905088565b6000600260008381526020019081526020016000209050600081600001540361082757816040517f2c067cd700000000000000000000000000000000000000000000000000000000815260040161081e9190610fec565b60405180910390fd5b60006005600084815260200190815260200160002060003373ffffffffffffffffffffffffffffffffffffffff1673ffffffffffffffffffffffffffffffffffffffff16815260200190815260200160002054905060006005600085815260200190815260200160002060003373ffffffffffffffffffffffffffffffffffffffff1673ffffffffffffffffffffffffffffffffffffffff168152602001908152602001600020819055503373ffffffffffffffffffffffffffffffffffffffff166108fc829081150290604051600060405180830381858888f19350505050158015610918573d6000803e3d6000fd5b507fcb1554278e74467e3a03605183022eced5dc116a9d067e47eaf8447202dbc0ae83338360405161094c939291906119e4565b60405180910390a1505050565b6003602052816000526040600020818154811061097557600080fd5b90600052602060002001600091509150505481565b6060600360008373ffffffffffffffffffffffffffffffffffffffff1673ffffffffffffffffffffffffffffffffffffffff168152602001908152602001600020805480602002602001604051908101604052809291908181526020018280548015610a1557602002820191906000526020600020905b815481526020019060010190808311610a01575b50505050509050919050565b60016000815480929190610a3490611a4a565b919050555060405180610100016040528060015481526020013373ffffffffffffffffffffffffffffffffffffffff16815260200184815260200183815260200186815260200185815260200160008152602001428152506002600060015481526020019081526020016000206000820151816000015560208201518160010160006101000a81548173ffffffffffffffffffffffffffffffffffffffff021916908373ffffffffffffffffffffffffffffffffffffffff1602179055506040820151816002019081610b0791906118cd565b506060820151816003019081610b1d91906118cd565b506080820151816004019081610b3391906118cd565b5060a0820151816005019081610b4991906118cd565b5060c0820151816006015560e08201518160070155905050610b6c600154610ecb565b7f825fb10f7650ed27414d6f86acdf7d5946927d9b25001f045f1a2435deec02fe600154338784604051610ba39493929190611a92565b60405180910390a15050505050565b60046020528160005260406000208181548110610bce57600080fd5b906000526020600020016000915091509054906101000a900473ffffffffffffffffffffffffffffffffffffffff1681565b60008060009054906101000a900473ffffffffffffffffffffffffffffffffffffffff16905090565b60008054906101000a900473ffffffffffffffffffffffffffffffffffffffff1681565b6005602052816000526040600020602052806000526040600020600091509150505481565b80600660008473ffffffffffffffffffffffffffffffffffffffff1673ffffffffffffffffffffffffffffffffffffffff168152602001908152602001600020819055507ffc577563f1b9a0461e24abef1e1fcc0d33d3d881f20b5df6dda59de4aae2c8218282604051610ce7929190611ade565b60405180910390a15050565b60606040518060400160405280600b81526020017f68656c6c6f20427572616b000000000000000000000000000000000000000000815250905090565b60015481565b60006002600083815260200190815260200160002090506000816000015403610d9657816040517f2c067cd7000000000000000000000000000000000000000000000000000000008152600401610d8d9190610fec565b60405180910390fd5b34816006016000828254610daa9190611b07565b9250508190555060046000838152602001908152602001600020339080600181540180825580915050600190039060005260206000200160009091909190916101000a81548173ffffffffffffffffffffffffffffffffffffffff021916908373ffffffffffffffffffffffffffffffffffffffff160217905550346005600084815260200190815260200160002060003373ffffffffffffffffffffffffffffffffffffffff1673ffffffffffffffffffffffffffffffffffffffff1681526020019081526020016000206000828254610e859190611b07565b925050819055507f0b5b4c52969ff7329ecf7ee536409fda87812b15a8622bc6e8cdeab3aee14a26823334604051610ebf939291906119e4565b60405180910390a15050565b600360003373ffffffffffffffffffffffffffffffffffffffff1673ffffffffffffffffffffffffffffffffffffffff16815260200190815260200160002081908060018154018082558091505060019003906000526020600020016000909190919091505550565b6000604051905090565b600080fd5b600080fd5b600073ffffffffffffffffffffffffffffffffffffffff82169050919050565b6000610f7382610f48565b9050919050565b610f8381610f68565b8114610f8e57600080fd5b50565b600081359050610fa081610f7a565b92915050565b600060208284031215610fbc57610fbb610f3e565b5b6000610fca84828501610f91565b91505092915050565b6000819050919050565b610fe681610fd3565b82525050565b60006020820190506110016000830184610fdd565b92915050565b61101081610fd3565b811461101b57600080fd5b50565b60008135905061102d81611007565b92915050565b600080fd5b600080fd5b6000601f19601f8301169050919050565b7f4e487b7100000000000000000000000000000000000000000000000000000000600052604160045260246000fd5b6110868261103d565b810181811067ffffffffffffffff821117156110a5576110a461104e565b5b80604052505050565b60006110b8610f34565b90506110c4828261107d565b919050565b600067ffffffffffffffff8211156110e4576110e361104e565b5b6110ed8261103d565b9050602081019050919050565b82818337600083830152505050565b600061111c611117846110c9565b6110ae565b90508281526020810184848401111561113857611137611038565b5b6111438482856110fa565b509392505050565b600082601f8301126111605761115f611033565b5b8135611170848260208601611109565b91505092915050565b60008060006060848603121561119257611191610f3e565b5b60006111a08682870161101e565b935050602084013567ffffffffffffffff8111156111c1576111c0610f43565b5b6111cd8682870161114b565b925050604084013567ffffffffffffffff8111156111ee576111ed610f43565b5b6111fa8682870161114b565b9150509250925092565b60006020828403121561121a57611219610f3e565b5b60006112288482850161101e565b91505092915050565b61123a81610f68565b82525050565b600081519050919050565b600082825260208201905092915050565b60005b8381101561127a57808201518184015260208101905061125f565b60008484015250505050565b600061129182611240565b61129b818561124b565b93506112ab81856020860161125c565b6112b48161103d565b840191505092915050565b6000610100820190506112d5600083018b610fdd565b6112e2602083018a611231565b81810360408301526112f48189611286565b905081810360608301526113088188611286565b9050818103608083015261131c8187611286565b905081810360a08301526113308186611286565b905061133f60c0830185610fdd565b61134c60e0830184610fdd565b9998505050505050505050565b600080604083850312156113705761136f610f3e565b5b600061137e85828601610f91565b925050602061138f8582860161101e565b9150509250929050565b600081519050919050565b600082825260208201905092915050565b6000819050602082019050919050565b6113ce81610fd3565b82525050565b60006113e083836113c5565b60208301905092915050565b6000602082019050919050565b600061140482611399565b61140e81856113a4565b9350611419836113b5565b8060005b8381101561144a57815161143188826113d4565b975061143c836113ec565b92505060018101905061141d565b5085935050505092915050565b6000602082019050818103600083015261147181846113f9565b905092915050565b600080600080600060a0868803121561149557611494610f3e565b5b600086013567ffffffffffffffff8111156114b3576114b2610f43565b5b6114bf8882890161114b565b955050602086013567ffffffffffffffff8111156114e0576114df610f43565b5b6114ec8882890161114b565b945050604086013567ffffffffffffffff81111561150d5761150c610f43565b5b6115198882890161114b565b935050606086013567ffffffffffffffff81111561153a57611539610f43565b5b6115468882890161114b565b92505060806115578882890161101e565b9150509295509295909350565b6000806040838503121561157b5761157a610f3e565b5b60006115898582860161101e565b925050602061159a8582860161101e565b9150509250929050565b60006020820190506115b96000830184611231565b92915050565b600080604083850312156115d6576115d5610f3e565b5b60006115e48582860161101e565b92505060206115f585828601610f91565b9150509250929050565b600060208201905081810360008301526116198184611286565b905092915050565b7f4f6e6c792063616d706169676e2063726561746f722063616e2075706461746560008201527f2063616d706169676e0000000000000000000000000000000000000000000000602082015250565b600061167d60298361124b565b915061168882611621565b604082019050919050565b60006040820190506116a86000830184611231565b81810360208301526116b981611670565b905092915050565b7f4e487b7100000000000000000000000000000000000000000000000000000000600052602260045260246000fd5b6000600282049050600182168061170857607f821691505b60208210810361171b5761171a6116c1565b5b50919050565b60008190508160005260206000209050919050565b60006020601f8301049050919050565b600082821b905092915050565b6000600883026117837fffffffffffffffffffffffffffffffffffffffffffffffffffffffffffffffff82611746565b61178d8683611746565b95508019841693508086168417925050509392505050565b6000819050919050565b60006117ca6117c56117c084610fd3565b6117a5565b610fd3565b9050919050565b6000819050919050565b6117e4836117af565b6117f86117f0826117d1565b848454611753565b825550505050565b600090565b61180d611800565b6118188184846117db565b505050565b5b8181101561183c57611831600082611805565b60018101905061181e565b5050565b601f8211156118815761185281611721565b61185b84611736565b8101602085101561186a578190505b61187e61187685611736565b83018261181d565b50505b505050565b600082821c905092915050565b60006118a460001984600802611886565b1980831691505092915050565b60006118bd8383611893565b9150826002028217905092915050565b6118d682611240565b67ffffffffffffffff8111156118ef576118ee61104e565b5b6118f982546116f0565b611904828285611840565b600060209050601f8311600181146119375760008415611925578287015190505b61192f85826118b1565b865550611997565b601f19841661194586611721565b60005b8281101561196d57848901518255600182019150602085019450602081019050611948565b8683101561198a5784890151611986601f891682611893565b8355505b6001600288020188555050505b505050505050565b60006060820190506119b46000830186610fdd565b81810360208301526119c68185611286565b905081810360408301526119da8184611286565b9050949350505050565b60006060820190506119f96000830186610fdd565b611a066020830185611231565b611a136040830184610fdd565b949350505050565b7f4e487b7100000000000000000000000000000000000000000000000000000000600052601160045260246000fd5b6000611a5582610fd3565b91507fffffffffffffffffffffffffffffffffffffffffffffffffffffffffffffffff8203611a8757611a86611a1b565b5b600182019050919050565b6000608082019050611aa76000830187610fdd565b611ab46020830186611231565b8181036040830152611ac68185611286565b9050611ad56060830184610fdd565b95945050505050565b6000604082019050611af36000830185611231565b611b006020830184610fdd565b9392505050565b6000611b1282610fd3565b9150611b1d83610fd3565b9250828201905080821115611b3557611b34611a1b565b5b9291505056fea2646970667358221220def19c3cbf57a354a2ee6402276e9b01e33debcf9c64f73e5126104afb14f88864736f6c63430008140033",
  "linkReferences": {},
  "deployedLinkReferences": {}
}