{
  "_format": "hh-sol-artifact-1",
  "contractName": "BitCaffein",
  "sourceName": "contracts/BitCaffein.sol",
  "abi": [
    {
      "inputs": [],
      "stateMutability": "nonpayable",
      "type": "constructor"
    },
    {
      "inputs": [
        {
          "internalType": "uint256",
          "name": "campaignId",
          "type": "uint256"
        }
      ],
      "name": "CampaignNotFound",
      "type": "error"
    },
    {
      "inputs": [
        {
          "internalType": "uint256",
          "name": "campaignId",
          "type": "uint256"
        },
        {
          "internalType": "string",
          "name": "text",
          "type": "string"
        }
      ],
      "name": "InsufficientDonation",
      "type": "error"
    },
    {
      "inputs": [
        {
          "internalType": "address",
          "name": "caller",
          "type": "address"
        },
        {
          "internalType": "string",
          "name": "text",
          "type": "string"
        }
      ],
      "name": "Unauthorized",
      "type": "error"
    },
    {
      "anonymous": false,
      "inputs": [
        {
          "indexed": false,
          "internalType": "uint256",
          "name": "campaignId",
          "type": "uint256"
        },
        {
          "indexed": false,
          "internalType": "address",
          "name": "creator",
          "type": "address"
        },
        {
          "indexed": false,
          "internalType": "string",
          "name": "title",
          "type": "string"
        },
        {
          "indexed": false,
          "internalType": "uint256",
          "name": "goalAmount",
          "type": "uint256"
        }
      ],
      "name": "CampaignCreated",
      "type": "event"
    },
    {
      "anonymous": false,
      "inputs": [
        {
          "indexed": false,
          "internalType": "uint256",
          "name": "campaignId",
          "type": "uint256"
        },
        {
          "indexed": false,
          "internalType": "address",
          "name": "deletedBy",
          "type": "address"
        }
      ],
      "name": "CampaignDeleted",
      "type": "event"
    },
    {
      "anonymous": false,
      "inputs": [
        {
          "indexed": false,
          "internalType": "uint256",
          "name": "campaignId",
          "type": "uint256"
        },
        {
          "indexed": false,
          "internalType": "string",
          "name": "newTitle",
          "type": "string"
        },
        {
          "indexed": false,
          "internalType": "string",
          "name": "newDescription",
          "type": "string"
        }
      ],
      "name": "CampaignUpdated",
      "type": "event"
    },
    {
      "anonymous": false,
      "inputs": [
        {
          "indexed": false,
          "internalType": "uint256",
          "name": "campaignId",
          "type": "uint256"
        },
        {
          "indexed": false,
          "internalType": "address",
          "name": "donor",
          "type": "address"
        },
        {
          "indexed": false,
          "internalType": "uint256",
          "name": "amount",
          "type": "uint256"
        }
      ],
      "name": "DonationReceived",
      "type": "event"
    },
    {
      "anonymous": false,
      "inputs": [
        {
          "indexed": false,
          "internalType": "uint256",
          "name": "campaignId",
          "type": "uint256"
        },
        {
          "indexed": false,
          "internalType": "address",
          "name": "donor",
          "type": "address"
        },
        {
          "indexed": false,
          "internalType": "uint256",
          "name": "amount",
          "type": "uint256"
        }
      ],
      "name": "DonationWithdrawn",
      "type": "event"
    },
    {
      "anonymous": false,
      "inputs": [
        {
          "indexed": false,
          "internalType": "address",
          "name": "user",
          "type": "address"
        },
        {
          "indexed": false,
          "internalType": "uint256",
          "name": "newReputation",
          "type": "uint256"
        }
      ],
      "name": "ReputationUpdated",
      "type": "event"
    },
    {
      "inputs": [
        {
          "internalType": "uint256",
          "name": "",
          "type": "uint256"
        }
      ],
      "name": "_allCampaigns",
      "outputs": [
        {
          "internalType": "uint256",
          "name": "id",
          "type": "uint256"
        },
        {
          "internalType": "address",
          "name": "creator",
          "type": "address"
        },
        {
          "internalType": "string",
          "name": "creatorName",
          "type": "string"
        },
        {
          "internalType": "string",
          "name": "creatorJob",
          "type": "string"
        },
        {
          "internalType": "string",
          "name": "title",
          "type": "string"
        },
        {
          "internalType": "string",
          "name": "description",
          "type": "string"
        },
        {
          "internalType": "uint256",
          "name": "totalAmount",
          "type": "uint256"
        },
        {
          "internalType": "uint256",
          "name": "goalAmount",
          "type": "uint256"
        },
        {
          "internalType": "uint256",
          "name": "startTime",
          "type": "uint256"
        }
      ],
      "stateMutability": "view",
      "type": "function"
    },
    {
      "inputs": [
        {
          "internalType": "uint256",
          "name": "",
          "type": "uint256"
        }
      ],
      "name": "_campaigns",
      "outputs": [
        {
          "internalType": "uint256",
          "name": "id",
          "type": "uint256"
        },
        {
          "internalType": "address",
          "name": "creator",
          "type": "address"
        },
        {
          "internalType": "string",
          "name": "creatorName",
          "type": "string"
        },
        {
          "internalType": "string",
          "name": "creatorJob",
          "type": "string"
        },
        {
          "internalType": "string",
          "name": "title",
          "type": "string"
        },
        {
          "internalType": "string",
          "name": "description",
          "type": "string"
        },
        {
          "internalType": "uint256",
          "name": "totalAmount",
          "type": "uint256"
        },
        {
          "internalType": "uint256",
          "name": "goalAmount",
          "type": "uint256"
        },
        {
          "internalType": "uint256",
          "name": "startTime",
          "type": "uint256"
        }
      ],
      "stateMutability": "view",
      "type": "function"
    },
    {
      "inputs": [
        {
          "internalType": "uint256",
          "name": "",
          "type": "uint256"
        },
        {
          "internalType": "address",
          "name": "",
          "type": "address"
        }
      ],
      "name": "_donorAmounts",
      "outputs": [
        {
          "internalType": "uint256",
          "name": "",
          "type": "uint256"
        }
      ],
      "stateMutability": "view",
      "type": "function"
    },
    {
      "inputs": [
        {
          "internalType": "uint256",
          "name": "",
          "type": "uint256"
        },
        {
          "internalType": "uint256",
          "name": "",
          "type": "uint256"
        }
      ],
      "name": "_donors",
      "outputs": [
        {
          "internalType": "address",
          "name": "",
          "type": "address"
        }
      ],
      "stateMutability": "view",
      "type": "function"
    },
    {
      "inputs": [
        {
          "internalType": "address",
          "name": "",
          "type": "address"
        },
        {
          "internalType": "uint256",
          "name": "",
          "type": "uint256"
        }
      ],
      "name": "_myCampaigns",
      "outputs": [
        {
          "internalType": "uint256",
          "name": "",
          "type": "uint256"
        }
      ],
      "stateMutability": "view",
      "type": "function"
    },
    {
      "inputs": [
        {
          "internalType": "address",
          "name": "",
          "type": "address"
        }
      ],
      "name": "_reputations",
      "outputs": [
        {
          "internalType": "uint256",
          "name": "",
          "type": "uint256"
        }
      ],
      "stateMutability": "view",
      "type": "function"
    },
    {
      "inputs": [],
      "name": "campaignCounter",
      "outputs": [
        {
          "internalType": "uint256",
          "name": "",
          "type": "uint256"
        }
      ],
      "stateMutability": "view",
      "type": "function"
    },
    {
      "inputs": [
        {
          "internalType": "string",
          "name": "title",
          "type": "string"
        },
        {
          "internalType": "string",
          "name": "description",
          "type": "string"
        },
        {
          "internalType": "string",
          "name": "creatorName",
          "type": "string"
        },
        {
          "internalType": "string",
          "name": "creatorJob",
          "type": "string"
        },
        {
          "internalType": "uint256",
          "name": "goalAmount",
          "type": "uint256"
        }
      ],
      "name": "createCampaign",
      "outputs": [
        {
          "internalType": "uint256",
          "name": "",
          "type": "uint256"
        }
      ],
      "stateMutability": "nonpayable",
      "type": "function"
    },
    {
      "inputs": [
        {
          "internalType": "uint256",
          "name": "campaignId",
          "type": "uint256"
        }
      ],
      "name": "deleteCampaign",
      "outputs": [],
      "stateMutability": "nonpayable",
      "type": "function"
    },
    {
      "inputs": [
        {
          "internalType": "uint256",
          "name": "campaignId",
          "type": "uint256"
        }
      ],
      "name": "donation",
      "outputs": [],
      "stateMutability": "payable",
      "type": "function"
    },
    {
      "inputs": [],
      "name": "getAllCampaigns",
      "outputs": [
        {
          "components": [
            {
              "internalType": "uint256",
              "name": "id",
              "type": "uint256"
            },
            {
              "internalType": "address",
              "name": "creator",
              "type": "address"
            },
            {
              "internalType": "string",
              "name": "creatorName",
              "type": "string"
            },
            {
              "internalType": "string",
              "name": "creatorJob",
              "type": "string"
            },
            {
              "internalType": "string",
              "name": "title",
              "type": "string"
            },
            {
              "internalType": "string",
              "name": "description",
              "type": "string"
            },
            {
              "internalType": "uint256",
              "name": "totalAmount",
              "type": "uint256"
            },
            {
              "internalType": "uint256",
              "name": "goalAmount",
              "type": "uint256"
            },
            {
              "internalType": "uint256",
              "name": "startTime",
              "type": "uint256"
            }
          ],
          "internalType": "struct BitCaffein.Campaign[]",
          "name": "",
          "type": "tuple[]"
        }
      ],
      "stateMutability": "view",
      "type": "function"
    },
    {
      "inputs": [
        {
          "internalType": "address",
          "name": "user",
          "type": "address"
        }
      ],
      "name": "getCampaignByAddress",
      "outputs": [
        {
          "internalType": "uint256[]",
          "name": "",
          "type": "uint256[]"
        }
      ],
      "stateMutability": "view",
      "type": "function"
    },
    {
      "inputs": [
        {
          "internalType": "uint256",
          "name": "campaignID",
          "type": "uint256"
        }
      ],
      "name": "getCampaignById",
      "outputs": [
        {
          "components": [
            {
              "internalType": "uint256",
              "name": "id",
              "type": "uint256"
            },
            {
              "internalType": "address",
              "name": "creator",
              "type": "address"
            },
            {
              "internalType": "string",
              "name": "creatorName",
              "type": "string"
            },
            {
              "internalType": "string",
              "name": "creatorJob",
              "type": "string"
            },
            {
              "internalType": "string",
              "name": "title",
              "type": "string"
            },
            {
              "internalType": "string",
              "name": "description",
              "type": "string"
            },
            {
              "internalType": "uint256",
              "name": "totalAmount",
              "type": "uint256"
            },
            {
              "internalType": "uint256",
              "name": "goalAmount",
              "type": "uint256"
            },
            {
              "internalType": "uint256",
              "name": "startTime",
              "type": "uint256"
            }
          ],
          "internalType": "struct BitCaffein.Campaign",
          "name": "",
          "type": "tuple"
        }
      ],
      "stateMutability": "view",
      "type": "function"
    },
    {
      "inputs": [],
      "name": "getCampaignCounter",
      "outputs": [
        {
          "internalType": "uint256",
          "name": "",
          "type": "uint256"
        }
      ],
      "stateMutability": "view",
      "type": "function"
    },
    {
      "inputs": [
        {
          "internalType": "uint256",
          "name": "campaignId",
          "type": "uint256"
        }
      ],
      "name": "getDonorAmount",
      "outputs": [
        {
          "internalType": "uint256",
          "name": "",
          "type": "uint256"
        }
      ],
      "stateMutability": "view",
      "type": "function"
    },
    {
      "inputs": [
        {
          "internalType": "address",
          "name": "_address",
          "type": "address"
        }
      ],
      "name": "getMyCampaigns",
      "outputs": [
        {
          "components": [
            {
              "internalType": "uint256",
              "name": "id",
              "type": "uint256"
            },
            {
              "internalType": "address",
              "name": "creator",
              "type": "address"
            },
            {
              "internalType": "string",
              "name": "creatorName",
              "type": "string"
            },
            {
              "internalType": "string",
              "name": "creatorJob",
              "type": "string"
            },
            {
              "internalType": "string",
              "name": "title",
              "type": "string"
            },
            {
              "internalType": "string",
              "name": "description",
              "type": "string"
            },
            {
              "internalType": "uint256",
              "name": "totalAmount",
              "type": "uint256"
            },
            {
              "internalType": "uint256",
              "name": "goalAmount",
              "type": "uint256"
            },
            {
              "internalType": "uint256",
              "name": "startTime",
              "type": "uint256"
            }
          ],
          "internalType": "struct BitCaffein.Campaign[]",
          "name": "",
          "type": "tuple[]"
        }
      ],
      "stateMutability": "view",
      "type": "function"
    },
    {
      "inputs": [],
      "name": "getOwner",
      "outputs": [
        {
          "internalType": "address",
          "name": "",
          "type": "address"
        }
      ],
      "stateMutability": "view",
      "type": "function"
    },
    {
      "inputs": [],
      "name": "owner",
      "outputs": [
        {
          "internalType": "address",
          "name": "",
          "type": "address"
        }
      ],
      "stateMutability": "view",
      "type": "function"
    },
    {
      "inputs": [
        {
          "internalType": "uint256",
          "name": "counter",
          "type": "uint256"
        }
      ],
      "name": "returnCounter",
      "outputs": [
        {
          "internalType": "uint256",
          "name": "",
          "type": "uint256"
        }
      ],
      "stateMutability": "view",
      "type": "function"
    },
    {
      "inputs": [],
      "name": "test",
      "outputs": [
        {
          "internalType": "string",
          "name": "",
          "type": "string"
        }
      ],
      "stateMutability": "pure",
      "type": "function"
    },
    {
      "inputs": [
        {
          "internalType": "uint256",
          "name": "campaignId",
          "type": "uint256"
        },
        {
          "internalType": "string",
          "name": "newTitle",
          "type": "string"
        },
        {
          "internalType": "string",
          "name": "newDescription",
          "type": "string"
        },
        {
          "internalType": "uint256",
          "name": "newGoalAmount",
          "type": "uint256"
        }
      ],
      "name": "updateCampaign",
      "outputs": [],
      "stateMutability": "nonpayable",
      "type": "function"
    },
    {
      "inputs": [
        {
          "internalType": "uint256",
          "name": "campaignId",
          "type": "uint256"
        }
      ],
      "name": "withdrawDonations",
      "outputs": [],
      "stateMutability": "nonpayable",
      "type": "function"
    }
  ],
  "bytecode": "0x6080604052600060015534801561001557600080fd5b50336000806101000a81548173ffffffffffffffffffffffffffffffffffffffff021916908373ffffffffffffffffffffffffffffffffffffffff160217905550613cab806100656000396000f3fe6080604052600436106101355760003560e01c8063893d20e8116100ab578063d94603531161006f578063d9460353146104a0578063e59f5f43146104e5578063e6ffcaa114610510578063f8a8fd6d1461054d578063fca604d714610578578063fdac3254146105a357610135565b8063893d20e8146103935780638da5cb5b146103be5780639f8d707a146103e9578063ab6057ec14610426578063cf85215b1461046357610135565b806364c90966116100fd57806364c909661461024357806369eee45d1461028057806375970193146102bd5780637a2453d9146102e65780637c9945501461032357806386cdf6041461036857610135565b80632cc9e2f01461013a578063388a7ec1146101775780633b0ac838146101a05780635653e964146101c9578063581bd7f914610206575b600080fd5b34801561014657600080fd5b50610161600480360381019061015c9190612821565b6105bf565b60405161016e9190612870565b60405180910390f35b34801561018357600080fd5b5061019e6004803603810190610199919061288b565b6105e4565b005b3480156101ac57600080fd5b506101c760048036038101906101c291906129fe565b6107bb565b005b3480156101d557600080fd5b506101f060048036038101906101eb9190612a9d565b61091e565b6040516101fd9190612870565b60405180910390f35b34801561021257600080fd5b5061022d60048036038101906102289190612a9d565b610936565b60405161023a9190612b88565b60405180910390f35b34801561024f57600080fd5b5061026a60048036038101906102659190612a9d565b6109cd565b6040516102779190612dd4565b60405180910390f35b34801561028c57600080fd5b506102a760048036038101906102a2919061288b565b610dca565b6040516102b49190612870565b60405180910390f35b3480156102c957600080fd5b506102e460048036038101906102df919061288b565b610dd4565b005b3480156102f257600080fd5b5061030d60048036038101906103089190612df6565b61123e565b60405161031a9190612870565b60405180910390f35b34801561032f57600080fd5b5061034a6004803603810190610345919061288b565b61163f565b60405161035f99989796959493929190612f3a565b60405180910390f35b34801561037457600080fd5b5061037d6118dd565b60405161038a9190612dd4565b60405180910390f35b34801561039f57600080fd5b506103a8611c80565b6040516103b59190612fe3565b60405180910390f35b3480156103ca57600080fd5b506103d3611ca9565b6040516103e09190612fe3565b60405180910390f35b3480156103f557600080fd5b50610410600480360381019061040b919061288b565b611ccd565b60405161041d9190612870565b60405180910390f35b34801561043257600080fd5b5061044d60048036038101906104489190612ffe565b611d27565b60405161045a9190612870565b60405180910390f35b34801561046f57600080fd5b5061048a6004803603810190610485919061303e565b611d58565b6040516104979190612fe3565b60405180910390f35b3480156104ac57600080fd5b506104c760048036038101906104c2919061288b565b611da6565b6040516104dc99989796959493929190612f3a565b60405180910390f35b3480156104f157600080fd5b506104fa612034565b6040516105079190612870565b60405180910390f35b34801561051c57600080fd5b506105376004803603810190610532919061288b565b61203e565b6040516105449190613158565b60405180910390f35b34801561055957600080fd5b50610562612332565b60405161056f919061317a565b60405180910390f35b34801561058457600080fd5b5061058d61236f565b60405161059a9190612870565b60405180910390f35b6105bd60048036038101906105b8919061288b565b612375565b005b6006602052816000526040600020602052806000526040600020600091509150505481565b6000600360008381526020019081526020016000209050600081600001540361064457816040517f2c067cd700000000000000000000000000000000000000000000000000000000815260040161063b9190612870565b60405180910390fd5b3373ffffffffffffffffffffffffffffffffffffffff168160010160009054906101000a900473ffffffffffffffffffffffffffffffffffffffff1673ffffffffffffffffffffffffffffffffffffffff16146106d6576040517f08c379a00000000000000000000000000000000000000000000000000000000081526004016106cd9061320e565b60405180910390fd5b60008160060154905067016345785d8a000081101561072a576040517f08c379a0000000000000000000000000000000000000000000000000000000008152600401610721906132a0565b60405180910390fd5b600082600601819055503373ffffffffffffffffffffffffffffffffffffffff166108fc829081150290604051600060405180830381858888f1935050505015801561077a573d6000803e3d6000fd5b507fcb1554278e74467e3a03605183022eced5dc116a9d067e47eaf8447202dbc0ae8333836040516107ae939291906132c0565b60405180910390a1505050565b6000600360008681526020019081526020016000209050600081600001540361081b57846040517f2c067cd70000000000000000000000000000000000000000000000000000000081526004016108129190612870565b60405180910390fd5b3373ffffffffffffffffffffffffffffffffffffffff168160010160009054906101000a900473ffffffffffffffffffffffffffffffffffffffff1673ffffffffffffffffffffffffffffffffffffffff16146108af57336040517fa35b150b0000000000000000000000000000000000000000000000000000000081526004016108a69190613369565b60405180910390fd5b838160040190816108c091906135a3565b50828160050190816108d291906135a3565b508181600701819055507fdc77f154e3ab7d771db26c038d44428f67b6aa1cfb32f824982d2300ba6b090a85858560405161090f93929190613675565b60405180910390a15050505050565b60076020528060005260406000206000915090505481565b6060600460008373ffffffffffffffffffffffffffffffffffffffff1673ffffffffffffffffffffffffffffffffffffffff1681526020019081526020016000208054806020026020016040519081016040528092919081815260200182805480156109c157602002820191906000526020600020905b8154815260200190600101908083116109ad575b50505050509050919050565b60606000600280549050905060008167ffffffffffffffff8111156109f5576109f46128d3565b5b604051908082528060200260200182016040528015610a2e57816020015b610a1b6126ba565b815260200190600190039081610a135790505b50905060005b82811015610dbf57600060028281548110610a5257610a516136ba565b5b906000526020600020906009020190508573ffffffffffffffffffffffffffffffffffffffff168160010160009054906101000a900473ffffffffffffffffffffffffffffffffffffffff1673ffffffffffffffffffffffffffffffffffffffff1603610dab578060405180610120016040529081600082015481526020016001820160009054906101000a900473ffffffffffffffffffffffffffffffffffffffff1673ffffffffffffffffffffffffffffffffffffffff1673ffffffffffffffffffffffffffffffffffffffff168152602001600282018054610b36906133c6565b80601f0160208091040260200160405190810160405280929190818152602001828054610b62906133c6565b8015610baf5780601f10610b8457610100808354040283529160200191610baf565b820191906000526020600020905b815481529060010190602001808311610b9257829003601f168201915b50505050508152602001600382018054610bc8906133c6565b80601f0160208091040260200160405190810160405280929190818152602001828054610bf4906133c6565b8015610c415780601f10610c1657610100808354040283529160200191610c41565b820191906000526020600020905b815481529060010190602001808311610c2457829003601f168201915b50505050508152602001600482018054610c5a906133c6565b80601f0160208091040260200160405190810160405280929190818152602001828054610c86906133c6565b8015610cd35780601f10610ca857610100808354040283529160200191610cd3565b820191906000526020600020905b815481529060010190602001808311610cb657829003601f168201915b50505050508152602001600582018054610cec906133c6565b80601f0160208091040260200160405190810160405280929190818152602001828054610d18906133c6565b8015610d655780601f10610d3a57610100808354040283529160200191610d65565b820191906000526020600020905b815481529060010190602001808311610d4857829003601f168201915b505050505081526020016006820154815260200160078201548152602001600882015481525050838381518110610d9f57610d9e6136ba565b5b60200260200101819052505b508080610db790613718565b915050610a34565b508092505050919050565b6000819050919050565b60006003600083815260200190815260200160002090506000816000015403610e3457816040517f2c067cd7000000000000000000000000000000000000000000000000000000008152600401610e2b9190612870565b60405180910390fd5b3373ffffffffffffffffffffffffffffffffffffffff168160010160009054906101000a900473ffffffffffffffffffffffffffffffffffffffff1673ffffffffffffffffffffffffffffffffffffffff1614158015610ee0575060008054906101000a900473ffffffffffffffffffffffffffffffffffffffff1673ffffffffffffffffffffffffffffffffffffffff163373ffffffffffffffffffffffffffffffffffffffff1614155b15610f2257336040517fa35b150b000000000000000000000000000000000000000000000000000000008152600401610f1991906137d2565b60405180910390fd5b600360008381526020019081526020016000206000808201600090556001820160006101000a81549073ffffffffffffffffffffffffffffffffffffffff0219169055600282016000610f75919061271c565b600382016000610f85919061271c565b600482016000610f95919061271c565b600582016000610fa5919061271c565b600682016000905560078201600090556008820160009055505060005b600280549050811015611200578260028281548110610fe457610fe36136ba565b5b906000526020600020906009020160000154036111ed576002600160028054905061100f9190613800565b815481106110205761101f6136ba565b5b906000526020600020906009020160028281548110611042576110416136ba565b5b9060005260206000209060090201600082015481600001556001820160009054906101000a900473ffffffffffffffffffffffffffffffffffffffff168160010160006101000a81548173ffffffffffffffffffffffffffffffffffffffff021916908373ffffffffffffffffffffffffffffffffffffffff160217905550600282018160020190816110d5919061384a565b50600382018160030190816110ea919061384a565b50600482018160040190816110ff919061384a565b5060058201816005019081611114919061384a565b50600682015481600601556007820154816007015560088201548160080155905050600280548061114857611147613932565b5b60019003818190600052602060002090600902016000808201600090556001820160006101000a81549073ffffffffffffffffffffffffffffffffffffffff021916905560028201600061119c919061271c565b6003820160006111ac919061271c565b6004820160006111bc919061271c565b6005820160006111cc919061271c565b60068201600090556007820160009055600882016000905550509055611200565b80806111f890613718565b915050610fc2565b507f8b2c4705c247d8d9f05477ce4c82c82947d7b6274633d30c3f1a0e07a66d4bb68233604051611232929190613961565b60405180910390a15050565b600080865111611283576040517f08c379a000000000000000000000000000000000000000000000000000000000815260040161127a906139d6565b60405180910390fd5b60008551116112c7576040517f08c379a00000000000000000000000000000000000000000000000000000000081526004016112be90613a42565b60405180910390fd5b600084511161130b576040517f08c379a000000000000000000000000000000000000000000000000000000000815260040161130290613aae565b60405180910390fd5b600083511161134f576040517f08c379a000000000000000000000000000000000000000000000000000000000815260040161134690613b1a565b60405180910390fd5b60008211611392576040517f08c379a000000000000000000000000000000000000000000000000000000000815260040161138990613bac565b60405180910390fd5b600160008154809291906113a590613718565b9190505550600060405180610120016040528060015481526020013373ffffffffffffffffffffffffffffffffffffffff16815260200186815260200185815260200188815260200187815260200160008152602001848152602001428152509050806003600060015481526020019081526020016000206000820151816000015560208201518160010160006101000a81548173ffffffffffffffffffffffffffffffffffffffff021916908373ffffffffffffffffffffffffffffffffffffffff160217905550604082015181600201908161148391906135a3565b50606082015181600301908161149991906135a3565b5060808201518160040190816114af91906135a3565b5060a08201518160050190816114c591906135a3565b5060c0820151816006015560e0820151816007015561010082015181600801559050506114f3600154612514565b60028190806001815401808255809150506001900390600052602060002090600902016000909190919091506000820151816000015560208201518160010160006101000a81548173ffffffffffffffffffffffffffffffffffffffff021916908373ffffffffffffffffffffffffffffffffffffffff160217905550604082015181600201908161158591906135a3565b50606082015181600301908161159b91906135a3565b5060808201518160040190816115b191906135a3565b5060a08201518160050190816115c791906135a3565b5060c0820151816006015560e08201518160070155610100820151816008015550507f825fb10f7650ed27414d6f86acdf7d5946927d9b25001f045f1a2435deec02fe6001543389866040516116209493929190613bcc565b60405180910390a1611633600154610dca565b91505095945050505050565b6002818154811061164f57600080fd5b90600052602060002090600902016000915090508060000154908060010160009054906101000a900473ffffffffffffffffffffffffffffffffffffffff169080600201805461169e906133c6565b80601f01602080910402602001604051908101604052809291908181526020018280546116ca906133c6565b80156117175780601f106116ec57610100808354040283529160200191611717565b820191906000526020600020905b8154815290600101906020018083116116fa57829003601f168201915b50505050509080600301805461172c906133c6565b80601f0160208091040260200160405190810160405280929190818152602001828054611758906133c6565b80156117a55780601f1061177a576101008083540402835291602001916117a5565b820191906000526020600020905b81548152906001019060200180831161178857829003601f168201915b5050505050908060040180546117ba906133c6565b80601f01602080910402602001604051908101604052809291908181526020018280546117e6906133c6565b80156118335780601f1061180857610100808354040283529160200191611833565b820191906000526020600020905b81548152906001019060200180831161181657829003601f168201915b505050505090806005018054611848906133c6565b80601f0160208091040260200160405190810160405280929190818152602001828054611874906133c6565b80156118c15780601f10611896576101008083540402835291602001916118c1565b820191906000526020600020905b8154815290600101906020018083116118a457829003601f168201915b5050505050908060060154908060070154908060080154905089565b60606000600280549050905060008167ffffffffffffffff811115611905576119046128d3565b5b60405190808252806020026020018201604052801561193e57816020015b61192b6126ba565b8152602001906001900390816119235790505b50905060005b82811015611c7757600060028281548110611962576119616136ba565b5b906000526020600020906009020190508060405180610120016040529081600082015481526020016001820160009054906101000a900473ffffffffffffffffffffffffffffffffffffffff1673ffffffffffffffffffffffffffffffffffffffff1673ffffffffffffffffffffffffffffffffffffffff1681526020016002820180546119ef906133c6565b80601f0160208091040260200160405190810160405280929190818152602001828054611a1b906133c6565b8015611a685780601f10611a3d57610100808354040283529160200191611a68565b820191906000526020600020905b815481529060010190602001808311611a4b57829003601f168201915b50505050508152602001600382018054611a81906133c6565b80601f0160208091040260200160405190810160405280929190818152602001828054611aad906133c6565b8015611afa5780601f10611acf57610100808354040283529160200191611afa565b820191906000526020600020905b815481529060010190602001808311611add57829003601f168201915b50505050508152602001600482018054611b13906133c6565b80601f0160208091040260200160405190810160405280929190818152602001828054611b3f906133c6565b8015611b8c5780601f10611b6157610100808354040283529160200191611b8c565b820191906000526020600020905b815481529060010190602001808311611b6f57829003601f168201915b50505050508152602001600582018054611ba5906133c6565b80601f0160208091040260200160405190810160405280929190818152602001828054611bd1906133c6565b8015611c1e5780601f10611bf357610100808354040283529160200191611c1e565b820191906000526020600020905b815481529060010190602001808311611c0157829003601f168201915b505050505081526020016006820154815260200160078201548152602001600882015481525050838381518110611c5857611c576136ba565b5b6020026020010181905250508080611c6f90613718565b915050611944565b50809250505090565b60008060009054906101000a900473ffffffffffffffffffffffffffffffffffffffff16905090565b60008054906101000a900473ffffffffffffffffffffffffffffffffffffffff1681565b60006006600083815260200190815260200160002060003373ffffffffffffffffffffffffffffffffffffffff1673ffffffffffffffffffffffffffffffffffffffff168152602001908152602001600020549050919050565b60046020528160005260406000208181548110611d4357600080fd5b90600052602060002001600091509150505481565b60056020528160005260406000208181548110611d7457600080fd5b906000526020600020016000915091509054906101000a900473ffffffffffffffffffffffffffffffffffffffff1681565b60036020528060005260406000206000915090508060000154908060010160009054906101000a900473ffffffffffffffffffffffffffffffffffffffff1690806002018054611df5906133c6565b80601f0160208091040260200160405190810160405280929190818152602001828054611e21906133c6565b8015611e6e5780601f10611e4357610100808354040283529160200191611e6e565b820191906000526020600020905b815481529060010190602001808311611e5157829003601f168201915b505050505090806003018054611e83906133c6565b80601f0160208091040260200160405190810160405280929190818152602001828054611eaf906133c6565b8015611efc5780601f10611ed157610100808354040283529160200191611efc565b820191906000526020600020905b815481529060010190602001808311611edf57829003601f168201915b505050505090806004018054611f11906133c6565b80601f0160208091040260200160405190810160405280929190818152602001828054611f3d906133c6565b8015611f8a5780601f10611f5f57610100808354040283529160200191611f8a565b820191906000526020600020905b815481529060010190602001808311611f6d57829003601f168201915b505050505090806005018054611f9f906133c6565b80601f0160208091040260200160405190810160405280929190818152602001828054611fcb906133c6565b80156120185780601f10611fed57610100808354040283529160200191612018565b820191906000526020600020905b815481529060010190602001808311611ffb57829003601f168201915b5050505050908060060154908060070154908060080154905089565b6000600154905090565b6120466126ba565b6003600083815260200190815260200160002060405180610120016040529081600082015481526020016001820160009054906101000a900473ffffffffffffffffffffffffffffffffffffffff1673ffffffffffffffffffffffffffffffffffffffff1673ffffffffffffffffffffffffffffffffffffffff1681526020016002820180546120d5906133c6565b80601f0160208091040260200160405190810160405280929190818152602001828054612101906133c6565b801561214e5780601f106121235761010080835404028352916020019161214e565b820191906000526020600020905b81548152906001019060200180831161213157829003601f168201915b50505050508152602001600382018054612167906133c6565b80601f0160208091040260200160405190810160405280929190818152602001828054612193906133c6565b80156121e05780601f106121b5576101008083540402835291602001916121e0565b820191906000526020600020905b8154815290600101906020018083116121c357829003601f168201915b505050505081526020016004820180546121f9906133c6565b80601f0160208091040260200160405190810160405280929190818152602001828054612225906133c6565b80156122725780601f1061224757610100808354040283529160200191612272565b820191906000526020600020905b81548152906001019060200180831161225557829003601f168201915b5050505050815260200160058201805461228b906133c6565b80601f01602080910402602001604051908101604052809291908181526020018280546122b7906133c6565b80156123045780601f106122d957610100808354040283529160200191612304565b820191906000526020600020905b8154815290600101906020018083116122e757829003601f168201915b5050505050815260200160068201548152602001600782015481526020016008820154815250509050919050565b60606040518060400160405280600b81526020017f68656c6c6f20427572616b000000000000000000000000000000000000000000815250905090565b60015481565b600060036000838152602001908152602001600020905060008160000154036123d557816040517f2c067cd70000000000000000000000000000000000000000000000000000000081526004016123cc9190612870565b60405180910390fd5b348160060160008282546123e99190613c18565b9250508190555060056000838152602001908152602001600020339080600181540180825580915050600190039060005260206000200160009091909190916101000a81548173ffffffffffffffffffffffffffffffffffffffff021916908373ffffffffffffffffffffffffffffffffffffffff160217905550346006600084815260200190815260200160002060003373ffffffffffffffffffffffffffffffffffffffff1673ffffffffffffffffffffffffffffffffffffffff16815260200190815260200160002060008282546124c49190613c18565b925050819055507f0b5b4c52969ff7329ecf7ee536409fda87812b15a8622bc6e8cdeab3aee14a268233346040516124fe939291906132c0565b60405180910390a1612510333461257d565b5050565b600460003373ffffffffffffffffffffffffffffffffffffffff1673ffffffffffffffffffffffffffffffffffffffff16815260200190815260200160002081908060018154018082558091505060019003906000526020600020016000909190919091505550565b600066038d7ea4c6800082101561259757600190506125e7565b660aa87bee5380008210156125af57600290506125e6565b662386f26fc100008210156125c757600390506125e5565b666a94d74f4300008210156125df57600490506125e4565b600590505b5b5b5b80600760008573ffffffffffffffffffffffffffffffffffffffff1673ffffffffffffffffffffffffffffffffffffffff16815260200190815260200160002060008282546126369190613c18565b925050819055507ffc577563f1b9a0461e24abef1e1fcc0d33d3d881f20b5df6dda59de4aae2c82183600760008673ffffffffffffffffffffffffffffffffffffffff1673ffffffffffffffffffffffffffffffffffffffff168152602001908152602001600020546040516126ad929190613c4c565b60405180910390a1505050565b60405180610120016040528060008152602001600073ffffffffffffffffffffffffffffffffffffffff168152602001606081526020016060815260200160608152602001606081526020016000815260200160008152602001600081525090565b508054612728906133c6565b6000825580601f1061273a5750612759565b601f016020900490600052602060002090810190612758919061275c565b5b50565b5b8082111561277557600081600090555060010161275d565b5090565b6000604051905090565b600080fd5b600080fd5b6000819050919050565b6127a08161278d565b81146127ab57600080fd5b50565b6000813590506127bd81612797565b92915050565b600073ffffffffffffffffffffffffffffffffffffffff82169050919050565b60006127ee826127c3565b9050919050565b6127fe816127e3565b811461280957600080fd5b50565b60008135905061281b816127f5565b92915050565b6000806040838503121561283857612837612783565b5b6000612846858286016127ae565b92505060206128578582860161280c565b9150509250929050565b61286a8161278d565b82525050565b60006020820190506128856000830184612861565b92915050565b6000602082840312156128a1576128a0612783565b5b60006128af848285016127ae565b91505092915050565b600080fd5b600080fd5b6000601f19601f8301169050919050565b7f4e487b7100000000000000000000000000000000000000000000000000000000600052604160045260246000fd5b61290b826128c2565b810181811067ffffffffffffffff8211171561292a576129296128d3565b5b80604052505050565b600061293d612779565b90506129498282612902565b919050565b600067ffffffffffffffff821115612969576129686128d3565b5b612972826128c2565b9050602081019050919050565b82818337600083830152505050565b60006129a161299c8461294e565b612933565b9050828152602081018484840111156129bd576129bc6128bd565b5b6129c884828561297f565b509392505050565b600082601f8301126129e5576129e46128b8565b5b81356129f584826020860161298e565b91505092915050565b60008060008060808587031215612a1857612a17612783565b5b6000612a26878288016127ae565b945050602085013567ffffffffffffffff811115612a4757612a46612788565b5b612a53878288016129d0565b935050604085013567ffffffffffffffff811115612a7457612a73612788565b5b612a80878288016129d0565b9250506060612a91878288016127ae565b91505092959194509250565b600060208284031215612ab357612ab2612783565b5b6000612ac18482850161280c565b91505092915050565b600081519050919050565b600082825260208201905092915050565b6000819050602082019050919050565b612aff8161278d565b82525050565b6000612b118383612af6565b60208301905092915050565b6000602082019050919050565b6000612b3582612aca565b612b3f8185612ad5565b9350612b4a83612ae6565b8060005b83811015612b7b578151612b628882612b05565b9750612b6d83612b1d565b925050600181019050612b4e565b5085935050505092915050565b60006020820190508181036000830152612ba28184612b2a565b905092915050565b600081519050919050565b600082825260208201905092915050565b6000819050602082019050919050565b612bdf816127e3565b82525050565b600081519050919050565b600082825260208201905092915050565b60005b83811015612c1f578082015181840152602081019050612c04565b60008484015250505050565b6000612c3682612be5565b612c408185612bf0565b9350612c50818560208601612c01565b612c59816128c2565b840191505092915050565b600061012083016000830151612c7d6000860182612af6565b506020830151612c906020860182612bd6565b5060408301518482036040860152612ca88282612c2b565b91505060608301518482036060860152612cc28282612c2b565b91505060808301518482036080860152612cdc8282612c2b565b91505060a083015184820360a0860152612cf68282612c2b565b91505060c0830151612d0b60c0860182612af6565b5060e0830151612d1e60e0860182612af6565b50610100830151612d33610100860182612af6565b508091505092915050565b6000612d4a8383612c64565b905092915050565b6000602082019050919050565b6000612d6a82612baa565b612d748185612bb5565b935083602082028501612d8685612bc6565b8060005b85811015612dc25784840389528151612da38582612d3e565b9450612dae83612d52565b925060208a01995050600181019050612d8a565b50829750879550505050505092915050565b60006020820190508181036000830152612dee8184612d5f565b905092915050565b600080600080600060a08688031215612e1257612e11612783565b5b600086013567ffffffffffffffff811115612e3057612e2f612788565b5b612e3c888289016129d0565b955050602086013567ffffffffffffffff811115612e5d57612e5c612788565b5b612e69888289016129d0565b945050604086013567ffffffffffffffff811115612e8a57612e89612788565b5b612e96888289016129d0565b935050606086013567ffffffffffffffff811115612eb757612eb6612788565b5b612ec3888289016129d0565b9250506080612ed4888289016127ae565b9150509295509295909350565b612eea816127e3565b82525050565b600082825260208201905092915050565b6000612f0c82612be5565b612f168185612ef0565b9350612f26818560208601612c01565b612f2f816128c2565b840191505092915050565b600061012082019050612f50600083018c612861565b612f5d602083018b612ee1565b8181036040830152612f6f818a612f01565b90508181036060830152612f838189612f01565b90508181036080830152612f978188612f01565b905081810360a0830152612fab8187612f01565b9050612fba60c0830186612861565b612fc760e0830185612861565b612fd5610100830184612861565b9a9950505050505050505050565b6000602082019050612ff86000830184612ee1565b92915050565b6000806040838503121561301557613014612783565b5b60006130238582860161280c565b9250506020613034858286016127ae565b9150509250929050565b6000806040838503121561305557613054612783565b5b6000613063858286016127ae565b9250506020613074858286016127ae565b9150509250929050565b6000610120830160008301516130976000860182612af6565b5060208301516130aa6020860182612bd6565b50604083015184820360408601526130c28282612c2b565b915050606083015184820360608601526130dc8282612c2b565b915050608083015184820360808601526130f68282612c2b565b91505060a083015184820360a08601526131108282612c2b565b91505060c083015161312560c0860182612af6565b5060e083015161313860e0860182612af6565b5061010083015161314d610100860182612af6565b508091505092915050565b60006020820190508181036000830152613172818461307e565b905092915050565b600060208201905081810360008301526131948184612f01565b905092915050565b7f4f6e6c792063616d706169676e206f776e65722063616e20776974686472617760008201527f20646f6e6174696f6e7300000000000000000000000000000000000000000000602082015250565b60006131f8602a83612ef0565b91506132038261319c565b604082019050919050565b60006020820190508181036000830152613227816131eb565b9050919050565b7f546865206d696e696d756d20616d6f756e7420746861742063616e206265207760008201527f697468647261776e20697320302e312065746865720000000000000000000000602082015250565b600061328a603583612ef0565b91506132958261322e565b604082019050919050565b600060208201905081810360008301526132b98161327d565b9050919050565b60006060820190506132d56000830186612861565b6132e26020830185612ee1565b6132ef6040830184612861565b949350505050565b7f4f6e6c792063616d706169676e2063726561746f722063616e2075706461746560008201527f2063616d706169676e0000000000000000000000000000000000000000000000602082015250565b6000613353602983612ef0565b915061335e826132f7565b604082019050919050565b600060408201905061337e6000830184612ee1565b818103602083015261338f81613346565b905092915050565b7f4e487b7100000000000000000000000000000000000000000000000000000000600052602260045260246000fd5b600060028204905060018216806133de57607f821691505b6020821081036133f1576133f0613397565b5b50919050565b60008190508160005260206000209050919050565b60006020601f8301049050919050565b600082821b905092915050565b6000600883026134597fffffffffffffffffffffffffffffffffffffffffffffffffffffffffffffffff8261341c565b613463868361341c565b95508019841693508086168417925050509392505050565b6000819050919050565b60006134a061349b6134968461278d565b61347b565b61278d565b9050919050565b6000819050919050565b6134ba83613485565b6134ce6134c6826134a7565b848454613429565b825550505050565b600090565b6134e36134d6565b6134ee8184846134b1565b505050565b5b81811015613512576135076000826134db565b6001810190506134f4565b5050565b601f82111561355757613528816133f7565b6135318461340c565b81016020851015613540578190505b61355461354c8561340c565b8301826134f3565b50505b505050565b600082821c905092915050565b600061357a6000198460080261355c565b1980831691505092915050565b60006135938383613569565b9150826002028217905092915050565b6135ac82612be5565b67ffffffffffffffff8111156135c5576135c46128d3565b5b6135cf82546133c6565b6135da828285613516565b600060209050601f83116001811461360d57600084156135fb578287015190505b6136058582613587565b86555061366d565b601f19841661361b866133f7565b60005b828110156136435784890151825560018201915060208501945060208101905061361e565b86831015613660578489015161365c601f891682613569565b8355505b6001600288020188555050505b505050505050565b600060608201905061368a6000830186612861565b818103602083015261369c8185612f01565b905081810360408301526136b08184612f01565b9050949350505050565b7f4e487b7100000000000000000000000000000000000000000000000000000000600052603260045260246000fd5b7f4e487b7100000000000000000000000000000000000000000000000000000000600052601160045260246000fd5b60006137238261278d565b91507fffffffffffffffffffffffffffffffffffffffffffffffffffffffffffffffff8203613755576137546136e9565b5b600182019050919050565b7f4e6f7420617574686f72697a656420746f2064656c657465207468697320636160008201527f6d706169676e0000000000000000000000000000000000000000000000000000602082015250565b60006137bc602683612ef0565b91506137c782613760565b604082019050919050565b60006040820190506137e76000830184612ee1565b81810360208301526137f8816137af565b905092915050565b600061380b8261278d565b91506138168361278d565b925082820390508181111561382e5761382d6136e9565b5b92915050565b600081549050613843816133c6565b9050919050565b818103613858575050613930565b61386182613834565b67ffffffffffffffff81111561387a576138796128d3565b5b61388482546133c6565b61388f828285613516565b6000601f8311600181146138be57600084156138ac578287015490505b6138b68582613587565b865550613929565b601f1984166138cc876133f7565b96506138d7866133f7565b60005b828110156138ff578489015482556001820191506001850194506020810190506138da565b8683101561391c5784890154613918601f891682613569565b8355505b6001600288020188555050505b5050505050505b565b7f4e487b7100000000000000000000000000000000000000000000000000000000600052603160045260246000fd5b60006040820190506139766000830185612861565b6139836020830184612ee1565b9392505050565b7f5469746c652063616e6e6f7420626520656d7074790000000000000000000000600082015250565b60006139c0601583612ef0565b91506139cb8261398a565b602082019050919050565b600060208201905081810360008301526139ef816139b3565b9050919050565b7f4465736372697074696f6e2063616e6e6f7420626520656d7074790000000000600082015250565b6000613a2c601b83612ef0565b9150613a37826139f6565b602082019050919050565b60006020820190508181036000830152613a5b81613a1f565b9050919050565b7f43726561746f72206e616d652063616e6e6f7420626520656d70747900000000600082015250565b6000613a98601c83612ef0565b9150613aa382613a62565b602082019050919050565b60006020820190508181036000830152613ac781613a8b565b9050919050565b7f43726561746f72206a6f622063616e6e6f7420626520656d7074790000000000600082015250565b6000613b04601b83612ef0565b9150613b0f82613ace565b602082019050919050565b60006020820190508181036000830152613b3381613af7565b9050919050565b7f476f616c20616d6f756e74206d7573742062652067726561746572207468616e60008201527f207a65726f000000000000000000000000000000000000000000000000000000602082015250565b6000613b96602583612ef0565b9150613ba182613b3a565b604082019050919050565b60006020820190508181036000830152613bc581613b89565b9050919050565b6000608082019050613be16000830187612861565b613bee6020830186612ee1565b8181036040830152613c008185612f01565b9050613c0f6060830184612861565b95945050505050565b6000613c238261278d565b9150613c2e8361278d565b9250828201905080821115613c4657613c456136e9565b5b92915050565b6000604082019050613c616000830185612ee1565b613c6e6020830184612861565b939250505056fea2646970667358221220c292e5d4041bc9c1c8fd2e6b1d5e4a34cc3daa722ed6fce28db4d0bc2c6b293b64736f6c63430008140033",
  "linkReferences": {},
  "deployedLinkReferences": {}
}