{
  "_format": "hh-sol-artifact-1",
  "contractName": "BitCaffein",
  "sourceName": "contracts/BitCaffein.sol",
  "abi": [
    {
      "inputs": [],
      "stateMutability": "nonpayable",
      "type": "constructor"
    },
    {
      "inputs": [
        {
          "internalType": "uint256",
          "name": "campaignId",
          "type": "uint256"
        }
      ],
      "name": "CampaignNotFound",
      "type": "error"
    },
    {
      "inputs": [
        {
          "internalType": "uint256",
          "name": "campaignId",
          "type": "uint256"
        },
        {
          "internalType": "string",
          "name": "text",
          "type": "string"
        }
      ],
      "name": "InsufficientDonation",
      "type": "error"
    },
    {
      "inputs": [
        {
          "internalType": "address",
          "name": "caller",
          "type": "address"
        },
        {
          "internalType": "string",
          "name": "text",
          "type": "string"
        }
      ],
      "name": "Unauthorized",
      "type": "error"
    },
    {
      "anonymous": false,
      "inputs": [
        {
          "indexed": false,
          "internalType": "uint256",
          "name": "campaignId",
          "type": "uint256"
        },
        {
          "indexed": false,
          "internalType": "address",
          "name": "creator",
          "type": "address"
        },
        {
          "indexed": false,
          "internalType": "string",
          "name": "title",
          "type": "string"
        },
        {
          "indexed": false,
          "internalType": "uint256",
          "name": "goalAmount",
          "type": "uint256"
        }
      ],
      "name": "CampaignCreated",
      "type": "event"
    },
    {
      "anonymous": false,
      "inputs": [
        {
          "indexed": false,
          "internalType": "uint256",
          "name": "campaignId",
          "type": "uint256"
        },
        {
          "indexed": false,
          "internalType": "address",
          "name": "deletedBy",
          "type": "address"
        }
      ],
      "name": "CampaignDeleted",
      "type": "event"
    },
    {
      "anonymous": false,
      "inputs": [
        {
          "indexed": false,
          "internalType": "uint256",
          "name": "campaignId",
          "type": "uint256"
        },
        {
          "indexed": false,
          "internalType": "string",
          "name": "newTitle",
          "type": "string"
        },
        {
          "indexed": false,
          "internalType": "string",
          "name": "newDescription",
          "type": "string"
        }
      ],
      "name": "CampaignUpdated",
      "type": "event"
    },
    {
      "anonymous": false,
      "inputs": [
        {
          "indexed": false,
          "internalType": "uint256",
          "name": "campaignId",
          "type": "uint256"
        },
        {
          "indexed": false,
          "internalType": "address",
          "name": "donor",
          "type": "address"
        },
        {
          "indexed": false,
          "internalType": "uint256",
          "name": "amount",
          "type": "uint256"
        }
      ],
      "name": "DonationReceived",
      "type": "event"
    },
    {
      "anonymous": false,
      "inputs": [
        {
          "indexed": false,
          "internalType": "uint256",
          "name": "campaignId",
          "type": "uint256"
        },
        {
          "indexed": false,
          "internalType": "address",
          "name": "donor",
          "type": "address"
        },
        {
          "indexed": false,
          "internalType": "uint256",
          "name": "amount",
          "type": "uint256"
        }
      ],
      "name": "DonationWithdrawn",
      "type": "event"
    },
    {
      "anonymous": false,
      "inputs": [
        {
          "indexed": false,
          "internalType": "address",
          "name": "user",
          "type": "address"
        },
        {
          "indexed": false,
          "internalType": "uint256",
          "name": "newReputation",
          "type": "uint256"
        }
      ],
      "name": "ReputationUpdated",
      "type": "event"
    },
    {
      "inputs": [
        {
          "internalType": "uint256",
          "name": "",
          "type": "uint256"
        }
      ],
      "name": "_allCampaigns",
      "outputs": [
        {
          "internalType": "uint256",
          "name": "id",
          "type": "uint256"
        },
        {
          "internalType": "address",
          "name": "creator",
          "type": "address"
        },
        {
          "internalType": "string",
          "name": "creatorName",
          "type": "string"
        },
        {
          "internalType": "string",
          "name": "creatorJob",
          "type": "string"
        },
        {
          "internalType": "string",
          "name": "title",
          "type": "string"
        },
        {
          "internalType": "string",
          "name": "description",
          "type": "string"
        },
        {
          "internalType": "uint256",
          "name": "totalAmount",
          "type": "uint256"
        },
        {
          "internalType": "uint256",
          "name": "goalAmount",
          "type": "uint256"
        },
        {
          "internalType": "uint256",
          "name": "startTime",
          "type": "uint256"
        }
      ],
      "stateMutability": "view",
      "type": "function"
    },
    {
      "inputs": [
        {
          "internalType": "uint256",
          "name": "",
          "type": "uint256"
        }
      ],
      "name": "_campaigns",
      "outputs": [
        {
          "internalType": "uint256",
          "name": "id",
          "type": "uint256"
        },
        {
          "internalType": "address",
          "name": "creator",
          "type": "address"
        },
        {
          "internalType": "string",
          "name": "creatorName",
          "type": "string"
        },
        {
          "internalType": "string",
          "name": "creatorJob",
          "type": "string"
        },
        {
          "internalType": "string",
          "name": "title",
          "type": "string"
        },
        {
          "internalType": "string",
          "name": "description",
          "type": "string"
        },
        {
          "internalType": "uint256",
          "name": "totalAmount",
          "type": "uint256"
        },
        {
          "internalType": "uint256",
          "name": "goalAmount",
          "type": "uint256"
        },
        {
          "internalType": "uint256",
          "name": "startTime",
          "type": "uint256"
        }
      ],
      "stateMutability": "view",
      "type": "function"
    },
    {
      "inputs": [
        {
          "internalType": "uint256",
          "name": "",
          "type": "uint256"
        },
        {
          "internalType": "address",
          "name": "",
          "type": "address"
        }
      ],
      "name": "_donorAmounts",
      "outputs": [
        {
          "internalType": "uint256",
          "name": "",
          "type": "uint256"
        }
      ],
      "stateMutability": "view",
      "type": "function"
    },
    {
      "inputs": [
        {
          "internalType": "uint256",
          "name": "",
          "type": "uint256"
        },
        {
          "internalType": "uint256",
          "name": "",
          "type": "uint256"
        }
      ],
      "name": "_donors",
      "outputs": [
        {
          "internalType": "address",
          "name": "",
          "type": "address"
        }
      ],
      "stateMutability": "view",
      "type": "function"
    },
    {
      "inputs": [
        {
          "internalType": "address",
          "name": "",
          "type": "address"
        },
        {
          "internalType": "uint256",
          "name": "",
          "type": "uint256"
        }
      ],
      "name": "_myCampaigns",
      "outputs": [
        {
          "internalType": "uint256",
          "name": "",
          "type": "uint256"
        }
      ],
      "stateMutability": "view",
      "type": "function"
    },
    {
      "inputs": [
        {
          "internalType": "address",
          "name": "",
          "type": "address"
        }
      ],
      "name": "_reputations",
      "outputs": [
        {
          "internalType": "uint256",
          "name": "",
          "type": "uint256"
        }
      ],
      "stateMutability": "view",
      "type": "function"
    },
    {
      "inputs": [],
      "name": "campaignCounter",
      "outputs": [
        {
          "internalType": "uint256",
          "name": "",
          "type": "uint256"
        }
      ],
      "stateMutability": "view",
      "type": "function"
    },
    {
      "inputs": [
        {
          "internalType": "string",
          "name": "title",
          "type": "string"
        },
        {
          "internalType": "string",
          "name": "description",
          "type": "string"
        },
        {
          "internalType": "string",
          "name": "creatorName",
          "type": "string"
        },
        {
          "internalType": "string",
          "name": "creatorJob",
          "type": "string"
        },
        {
          "internalType": "uint256",
          "name": "goalAmount",
          "type": "uint256"
        }
      ],
      "name": "createCampaign",
      "outputs": [],
      "stateMutability": "nonpayable",
      "type": "function"
    },
    {
      "inputs": [
        {
          "internalType": "uint256",
          "name": "campaignId",
          "type": "uint256"
        }
      ],
      "name": "deleteCampaign",
      "outputs": [],
      "stateMutability": "nonpayable",
      "type": "function"
    },
    {
      "inputs": [
        {
          "internalType": "uint256",
          "name": "campaignId",
          "type": "uint256"
        }
      ],
      "name": "donation",
      "outputs": [],
      "stateMutability": "payable",
      "type": "function"
    },
    {
      "inputs": [],
      "name": "getAllCampaigns",
      "outputs": [
        {
          "components": [
            {
              "internalType": "uint256",
              "name": "id",
              "type": "uint256"
            },
            {
              "internalType": "address",
              "name": "creator",
              "type": "address"
            },
            {
              "internalType": "string",
              "name": "creatorName",
              "type": "string"
            },
            {
              "internalType": "string",
              "name": "creatorJob",
              "type": "string"
            },
            {
              "internalType": "string",
              "name": "title",
              "type": "string"
            },
            {
              "internalType": "string",
              "name": "description",
              "type": "string"
            },
            {
              "internalType": "uint256",
              "name": "totalAmount",
              "type": "uint256"
            },
            {
              "internalType": "uint256",
              "name": "goalAmount",
              "type": "uint256"
            },
            {
              "internalType": "uint256",
              "name": "startTime",
              "type": "uint256"
            }
          ],
          "internalType": "struct BitCaffein.Campaign[]",
          "name": "",
          "type": "tuple[]"
        }
      ],
      "stateMutability": "view",
      "type": "function"
    },
    {
      "inputs": [
        {
          "internalType": "address",
          "name": "user",
          "type": "address"
        }
      ],
      "name": "getCampaignByAddress",
      "outputs": [
        {
          "internalType": "uint256[]",
          "name": "",
          "type": "uint256[]"
        }
      ],
      "stateMutability": "view",
      "type": "function"
    },
    {
      "inputs": [
        {
          "internalType": "uint256",
          "name": "campaignID",
          "type": "uint256"
        }
      ],
      "name": "getCampaignById",
      "outputs": [
        {
          "components": [
            {
              "internalType": "uint256",
              "name": "id",
              "type": "uint256"
            },
            {
              "internalType": "address",
              "name": "creator",
              "type": "address"
            },
            {
              "internalType": "string",
              "name": "creatorName",
              "type": "string"
            },
            {
              "internalType": "string",
              "name": "creatorJob",
              "type": "string"
            },
            {
              "internalType": "string",
              "name": "title",
              "type": "string"
            },
            {
              "internalType": "string",
              "name": "description",
              "type": "string"
            },
            {
              "internalType": "uint256",
              "name": "totalAmount",
              "type": "uint256"
            },
            {
              "internalType": "uint256",
              "name": "goalAmount",
              "type": "uint256"
            },
            {
              "internalType": "uint256",
              "name": "startTime",
              "type": "uint256"
            }
          ],
          "internalType": "struct BitCaffein.Campaign",
          "name": "",
          "type": "tuple"
        }
      ],
      "stateMutability": "view",
      "type": "function"
    },
    {
      "inputs": [
        {
          "internalType": "uint256",
          "name": "campaignId",
          "type": "uint256"
        }
      ],
      "name": "getDonorAmount",
      "outputs": [
        {
          "internalType": "uint256",
          "name": "",
          "type": "uint256"
        }
      ],
      "stateMutability": "view",
      "type": "function"
    },
    {
      "inputs": [
        {
          "internalType": "address",
          "name": "_address",
          "type": "address"
        }
      ],
      "name": "getMyCampaigns",
      "outputs": [
        {
          "components": [
            {
              "internalType": "uint256",
              "name": "id",
              "type": "uint256"
            },
            {
              "internalType": "address",
              "name": "creator",
              "type": "address"
            },
            {
              "internalType": "string",
              "name": "creatorName",
              "type": "string"
            },
            {
              "internalType": "string",
              "name": "creatorJob",
              "type": "string"
            },
            {
              "internalType": "string",
              "name": "title",
              "type": "string"
            },
            {
              "internalType": "string",
              "name": "description",
              "type": "string"
            },
            {
              "internalType": "uint256",
              "name": "totalAmount",
              "type": "uint256"
            },
            {
              "internalType": "uint256",
              "name": "goalAmount",
              "type": "uint256"
            },
            {
              "internalType": "uint256",
              "name": "startTime",
              "type": "uint256"
            }
          ],
          "internalType": "struct BitCaffein.Campaign[]",
          "name": "",
          "type": "tuple[]"
        }
      ],
      "stateMutability": "view",
      "type": "function"
    },
    {
      "inputs": [],
      "name": "getOwner",
      "outputs": [
        {
          "internalType": "address",
          "name": "",
          "type": "address"
        }
      ],
      "stateMutability": "view",
      "type": "function"
    },
    {
      "inputs": [],
      "name": "owner",
      "outputs": [
        {
          "internalType": "address",
          "name": "",
          "type": "address"
        }
      ],
      "stateMutability": "view",
      "type": "function"
    },
    {
      "inputs": [],
      "name": "test",
      "outputs": [
        {
          "internalType": "string",
          "name": "",
          "type": "string"
        }
      ],
      "stateMutability": "pure",
      "type": "function"
    },
    {
      "inputs": [
        {
          "internalType": "uint256",
          "name": "campaignId",
          "type": "uint256"
        },
        {
          "internalType": "string",
          "name": "newTitle",
          "type": "string"
        },
        {
          "internalType": "string",
          "name": "newDescription",
          "type": "string"
        }
      ],
      "name": "updateCampaign",
      "outputs": [],
      "stateMutability": "nonpayable",
      "type": "function"
    },
    {
      "inputs": [
        {
          "internalType": "uint256",
          "name": "campaignId",
          "type": "uint256"
        }
      ],
      "name": "withdrawDonations",
      "outputs": [],
      "stateMutability": "nonpayable",
      "type": "function"
    }
  ],
  "bytecode": "0x6080604052600060015534801561001557600080fd5b50336000806101000a81548173ffffffffffffffffffffffffffffffffffffffff021916908373ffffffffffffffffffffffffffffffffffffffff16021790555061383e806100656000396000f3fe60806040526004361061011f5760003560e01c8063893d20e8116100a0578063d946035311610064578063d946035314610439578063e6ffcaa11461047e578063f8a8fd6d146104bb578063fca604d7146104e6578063fdac3254146105115761011f565b8063893d20e81461032c5780638da5cb5b146103575780639f8d707a14610382578063ab6057ec146103bf578063cf85215b146103fc5761011f565b806364c90966116100e757806364c909661461022d578063759701931461026a5780637a2453d9146102935780637c994550146102bc57806386cdf604146103015761011f565b80631026373f146101245780632cc9e2f01461014d578063388a7ec11461018a5780635653e964146101b3578063581bd7f9146101f0575b600080fd5b34801561013057600080fd5b5061014b600480360381019061014691906126f2565b61052d565b005b34801561015957600080fd5b50610174600480360381019061016f91906127db565b610686565b604051610181919061282a565b60405180910390f35b34801561019657600080fd5b506101b160048036038101906101ac9190612845565b6106ab565b005b3480156101bf57600080fd5b506101da60048036038101906101d59190612872565b610882565b6040516101e7919061282a565b60405180910390f35b3480156101fc57600080fd5b5061021760048036038101906102129190612872565b61089a565b604051610224919061295d565b60405180910390f35b34801561023957600080fd5b50610254600480360381019061024f9190612872565b610931565b6040516102619190612ba9565b60405180910390f35b34801561027657600080fd5b50610291600480360381019061028c9190612845565b610d2e565b005b34801561029f57600080fd5b506102ba60048036038101906102b59190612bcb565b611198565b005b3480156102c857600080fd5b506102e360048036038101906102de9190612845565b611436565b6040516102f899989796959493929190612d0f565b60405180910390f35b34801561030d57600080fd5b506103166116d4565b6040516103239190612ba9565b60405180910390f35b34801561033857600080fd5b50610341611a77565b60405161034e9190612db8565b60405180910390f35b34801561036357600080fd5b5061036c611aa0565b6040516103799190612db8565b60405180910390f35b34801561038e57600080fd5b506103a960048036038101906103a49190612845565b611ac4565b6040516103b6919061282a565b60405180910390f35b3480156103cb57600080fd5b506103e660048036038101906103e19190612dd3565b611b1e565b6040516103f3919061282a565b60405180910390f35b34801561040857600080fd5b50610423600480360381019061041e9190612e13565b611b4f565b6040516104309190612db8565b60405180910390f35b34801561044557600080fd5b50610460600480360381019061045b9190612845565b611b9d565b60405161047599989796959493929190612d0f565b60405180910390f35b34801561048a57600080fd5b506104a560048036038101906104a09190612845565b611e2b565b6040516104b29190612f2d565b60405180910390f35b3480156104c757600080fd5b506104d061211f565b6040516104dd9190612f4f565b60405180910390f35b3480156104f257600080fd5b506104fb61215c565b604051610508919061282a565b60405180910390f35b61052b60048036038101906105269190612845565b612162565b005b6000600360008581526020019081526020016000209050600081600001540361058d57836040517f2c067cd7000000000000000000000000000000000000000000000000000000008152600401610584919061282a565b60405180910390fd5b3373ffffffffffffffffffffffffffffffffffffffff168160010160009054906101000a900473ffffffffffffffffffffffffffffffffffffffff1673ffffffffffffffffffffffffffffffffffffffff161461062157336040517fa35b150b0000000000000000000000000000000000000000000000000000000081526004016106189190612fe3565b60405180910390fd5b82816004019081610632919061321d565b5081816005019081610644919061321d565b507fdc77f154e3ab7d771db26c038d44428f67b6aa1cfb32f824982d2300ba6b090a848484604051610678939291906132ef565b60405180910390a150505050565b6006602052816000526040600020602052806000526040600020600091509150505481565b6000600360008381526020019081526020016000209050600081600001540361070b57816040517f2c067cd7000000000000000000000000000000000000000000000000000000008152600401610702919061282a565b60405180910390fd5b3373ffffffffffffffffffffffffffffffffffffffff168160010160009054906101000a900473ffffffffffffffffffffffffffffffffffffffff1673ffffffffffffffffffffffffffffffffffffffff161461079d576040517f08c379a0000000000000000000000000000000000000000000000000000000008152600401610794906133a6565b60405180910390fd5b60008160060154905067016345785d8a00008110156107f1576040517f08c379a00000000000000000000000000000000000000000000000000000000081526004016107e890613438565b60405180910390fd5b600082600601819055503373ffffffffffffffffffffffffffffffffffffffff166108fc829081150290604051600060405180830381858888f19350505050158015610841573d6000803e3d6000fd5b507fcb1554278e74467e3a03605183022eced5dc116a9d067e47eaf8447202dbc0ae83338360405161087593929190613458565b60405180910390a1505050565b60076020528060005260406000206000915090505481565b6060600460008373ffffffffffffffffffffffffffffffffffffffff1673ffffffffffffffffffffffffffffffffffffffff16815260200190815260200160002080548060200260200160405190810160405280929190818152602001828054801561092557602002820191906000526020600020905b815481526020019060010190808311610911575b50505050509050919050565b60606000600280549050905060008167ffffffffffffffff811115610959576109586125c7565b5b60405190808252806020026020018201604052801561099257816020015b61097f6124a3565b8152602001906001900390816109775790505b50905060005b82811015610d23576000600282815481106109b6576109b561348f565b5b906000526020600020906009020190508573ffffffffffffffffffffffffffffffffffffffff168160010160009054906101000a900473ffffffffffffffffffffffffffffffffffffffff1673ffffffffffffffffffffffffffffffffffffffff1603610d0f578060405180610120016040529081600082015481526020016001820160009054906101000a900473ffffffffffffffffffffffffffffffffffffffff1673ffffffffffffffffffffffffffffffffffffffff1673ffffffffffffffffffffffffffffffffffffffff168152602001600282018054610a9a90613040565b80601f0160208091040260200160405190810160405280929190818152602001828054610ac690613040565b8015610b135780601f10610ae857610100808354040283529160200191610b13565b820191906000526020600020905b815481529060010190602001808311610af657829003601f168201915b50505050508152602001600382018054610b2c90613040565b80601f0160208091040260200160405190810160405280929190818152602001828054610b5890613040565b8015610ba55780601f10610b7a57610100808354040283529160200191610ba5565b820191906000526020600020905b815481529060010190602001808311610b8857829003601f168201915b50505050508152602001600482018054610bbe90613040565b80601f0160208091040260200160405190810160405280929190818152602001828054610bea90613040565b8015610c375780601f10610c0c57610100808354040283529160200191610c37565b820191906000526020600020905b815481529060010190602001808311610c1a57829003601f168201915b50505050508152602001600582018054610c5090613040565b80601f0160208091040260200160405190810160405280929190818152602001828054610c7c90613040565b8015610cc95780601f10610c9e57610100808354040283529160200191610cc9565b820191906000526020600020905b815481529060010190602001808311610cac57829003601f168201915b505050505081526020016006820154815260200160078201548152602001600882015481525050838381518110610d0357610d0261348f565b5b60200260200101819052505b508080610d1b906134ed565b915050610998565b508092505050919050565b60006003600083815260200190815260200160002090506000816000015403610d8e57816040517f2c067cd7000000000000000000000000000000000000000000000000000000008152600401610d85919061282a565b60405180910390fd5b3373ffffffffffffffffffffffffffffffffffffffff168160010160009054906101000a900473ffffffffffffffffffffffffffffffffffffffff1673ffffffffffffffffffffffffffffffffffffffff1614158015610e3a575060008054906101000a900473ffffffffffffffffffffffffffffffffffffffff1673ffffffffffffffffffffffffffffffffffffffff163373ffffffffffffffffffffffffffffffffffffffff1614155b15610e7c57336040517fa35b150b000000000000000000000000000000000000000000000000000000008152600401610e7391906135a7565b60405180910390fd5b600360008381526020019081526020016000206000808201600090556001820160006101000a81549073ffffffffffffffffffffffffffffffffffffffff0219169055600282016000610ecf9190612505565b600382016000610edf9190612505565b600482016000610eef9190612505565b600582016000610eff9190612505565b600682016000905560078201600090556008820160009055505060005b60028054905081101561115a578260028281548110610f3e57610f3d61348f565b5b906000526020600020906009020160000154036111475760026001600280549050610f6991906135d5565b81548110610f7a57610f7961348f565b5b906000526020600020906009020160028281548110610f9c57610f9b61348f565b5b9060005260206000209060090201600082015481600001556001820160009054906101000a900473ffffffffffffffffffffffffffffffffffffffff168160010160006101000a81548173ffffffffffffffffffffffffffffffffffffffff021916908373ffffffffffffffffffffffffffffffffffffffff1602179055506002820181600201908161102f919061361f565b5060038201816003019081611044919061361f565b5060048201816004019081611059919061361f565b506005820181600501908161106e919061361f565b5060068201548160060155600782015481600701556008820154816008015590505060028054806110a2576110a1613707565b5b60019003818190600052602060002090600902016000808201600090556001820160006101000a81549073ffffffffffffffffffffffffffffffffffffffff02191690556002820160006110f69190612505565b6003820160006111069190612505565b6004820160006111169190612505565b6005820160006111269190612505565b6006820160009055600782016000905560088201600090555050905561115a565b8080611152906134ed565b915050610f1c565b507f8b2c4705c247d8d9f05477ce4c82c82947d7b6274633d30c3f1a0e07a66d4bb6823360405161118c929190613736565b60405180910390a15050565b600160008154809291906111ab906134ed565b9190505550600060405180610120016040528060015481526020013373ffffffffffffffffffffffffffffffffffffffff16815260200185815260200184815260200187815260200186815260200160008152602001838152602001428152509050806003600060015481526020019081526020016000206000820151816000015560208201518160010160006101000a81548173ffffffffffffffffffffffffffffffffffffffff021916908373ffffffffffffffffffffffffffffffffffffffff1602179055506040820151816002019081611289919061321d565b50606082015181600301908161129f919061321d565b5060808201518160040190816112b5919061321d565b5060a08201518160050190816112cb919061321d565b5060c0820151816006015560e0820151816007015561010082015181600801559050506112f9600154612301565b60028190806001815401808255809150506001900390600052602060002090600902016000909190919091506000820151816000015560208201518160010160006101000a81548173ffffffffffffffffffffffffffffffffffffffff021916908373ffffffffffffffffffffffffffffffffffffffff160217905550604082015181600201908161138b919061321d565b5060608201518160030190816113a1919061321d565b5060808201518160040190816113b7919061321d565b5060a08201518160050190816113cd919061321d565b5060c0820151816006015560e08201518160070155610100820151816008015550507f825fb10f7650ed27414d6f86acdf7d5946927d9b25001f045f1a2435deec02fe600154338885604051611426949392919061375f565b60405180910390a1505050505050565b6002818154811061144657600080fd5b90600052602060002090600902016000915090508060000154908060010160009054906101000a900473ffffffffffffffffffffffffffffffffffffffff169080600201805461149590613040565b80601f01602080910402602001604051908101604052809291908181526020018280546114c190613040565b801561150e5780601f106114e35761010080835404028352916020019161150e565b820191906000526020600020905b8154815290600101906020018083116114f157829003601f168201915b50505050509080600301805461152390613040565b80601f016020809104026020016040519081016040528092919081815260200182805461154f90613040565b801561159c5780601f106115715761010080835404028352916020019161159c565b820191906000526020600020905b81548152906001019060200180831161157f57829003601f168201915b5050505050908060040180546115b190613040565b80601f01602080910402602001604051908101604052809291908181526020018280546115dd90613040565b801561162a5780601f106115ff5761010080835404028352916020019161162a565b820191906000526020600020905b81548152906001019060200180831161160d57829003601f168201915b50505050509080600501805461163f90613040565b80601f016020809104026020016040519081016040528092919081815260200182805461166b90613040565b80156116b85780601f1061168d576101008083540402835291602001916116b8565b820191906000526020600020905b81548152906001019060200180831161169b57829003601f168201915b5050505050908060060154908060070154908060080154905089565b60606000600280549050905060008167ffffffffffffffff8111156116fc576116fb6125c7565b5b60405190808252806020026020018201604052801561173557816020015b6117226124a3565b81526020019060019003908161171a5790505b50905060005b82811015611a6e576000600282815481106117595761175861348f565b5b906000526020600020906009020190508060405180610120016040529081600082015481526020016001820160009054906101000a900473ffffffffffffffffffffffffffffffffffffffff1673ffffffffffffffffffffffffffffffffffffffff1673ffffffffffffffffffffffffffffffffffffffff1681526020016002820180546117e690613040565b80601f016020809104026020016040519081016040528092919081815260200182805461181290613040565b801561185f5780601f106118345761010080835404028352916020019161185f565b820191906000526020600020905b81548152906001019060200180831161184257829003601f168201915b5050505050815260200160038201805461187890613040565b80601f01602080910402602001604051908101604052809291908181526020018280546118a490613040565b80156118f15780601f106118c6576101008083540402835291602001916118f1565b820191906000526020600020905b8154815290600101906020018083116118d457829003601f168201915b5050505050815260200160048201805461190a90613040565b80601f016020809104026020016040519081016040528092919081815260200182805461193690613040565b80156119835780601f1061195857610100808354040283529160200191611983565b820191906000526020600020905b81548152906001019060200180831161196657829003601f168201915b5050505050815260200160058201805461199c90613040565b80601f01602080910402602001604051908101604052809291908181526020018280546119c890613040565b8015611a155780601f106119ea57610100808354040283529160200191611a15565b820191906000526020600020905b8154815290600101906020018083116119f857829003601f168201915b505050505081526020016006820154815260200160078201548152602001600882015481525050838381518110611a4f57611a4e61348f565b5b6020026020010181905250508080611a66906134ed565b91505061173b565b50809250505090565b60008060009054906101000a900473ffffffffffffffffffffffffffffffffffffffff16905090565b60008054906101000a900473ffffffffffffffffffffffffffffffffffffffff1681565b60006006600083815260200190815260200160002060003373ffffffffffffffffffffffffffffffffffffffff1673ffffffffffffffffffffffffffffffffffffffff168152602001908152602001600020549050919050565b60046020528160005260406000208181548110611b3a57600080fd5b90600052602060002001600091509150505481565b60056020528160005260406000208181548110611b6b57600080fd5b906000526020600020016000915091509054906101000a900473ffffffffffffffffffffffffffffffffffffffff1681565b60036020528060005260406000206000915090508060000154908060010160009054906101000a900473ffffffffffffffffffffffffffffffffffffffff1690806002018054611bec90613040565b80601f0160208091040260200160405190810160405280929190818152602001828054611c1890613040565b8015611c655780601f10611c3a57610100808354040283529160200191611c65565b820191906000526020600020905b815481529060010190602001808311611c4857829003601f168201915b505050505090806003018054611c7a90613040565b80601f0160208091040260200160405190810160405280929190818152602001828054611ca690613040565b8015611cf35780601f10611cc857610100808354040283529160200191611cf3565b820191906000526020600020905b815481529060010190602001808311611cd657829003601f168201915b505050505090806004018054611d0890613040565b80601f0160208091040260200160405190810160405280929190818152602001828054611d3490613040565b8015611d815780601f10611d5657610100808354040283529160200191611d81565b820191906000526020600020905b815481529060010190602001808311611d6457829003601f168201915b505050505090806005018054611d9690613040565b80601f0160208091040260200160405190810160405280929190818152602001828054611dc290613040565b8015611e0f5780601f10611de457610100808354040283529160200191611e0f565b820191906000526020600020905b815481529060010190602001808311611df257829003601f168201915b5050505050908060060154908060070154908060080154905089565b611e336124a3565b6003600083815260200190815260200160002060405180610120016040529081600082015481526020016001820160009054906101000a900473ffffffffffffffffffffffffffffffffffffffff1673ffffffffffffffffffffffffffffffffffffffff1673ffffffffffffffffffffffffffffffffffffffff168152602001600282018054611ec290613040565b80601f0160208091040260200160405190810160405280929190818152602001828054611eee90613040565b8015611f3b5780601f10611f1057610100808354040283529160200191611f3b565b820191906000526020600020905b815481529060010190602001808311611f1e57829003601f168201915b50505050508152602001600382018054611f5490613040565b80601f0160208091040260200160405190810160405280929190818152602001828054611f8090613040565b8015611fcd5780601f10611fa257610100808354040283529160200191611fcd565b820191906000526020600020905b815481529060010190602001808311611fb057829003601f168201915b50505050508152602001600482018054611fe690613040565b80601f016020809104026020016040519081016040528092919081815260200182805461201290613040565b801561205f5780601f106120345761010080835404028352916020019161205f565b820191906000526020600020905b81548152906001019060200180831161204257829003601f168201915b5050505050815260200160058201805461207890613040565b80601f01602080910402602001604051908101604052809291908181526020018280546120a490613040565b80156120f15780601f106120c6576101008083540402835291602001916120f1565b820191906000526020600020905b8154815290600101906020018083116120d457829003601f168201915b5050505050815260200160068201548152602001600782015481526020016008820154815250509050919050565b60606040518060400160405280600b81526020017f68656c6c6f20427572616b000000000000000000000000000000000000000000815250905090565b60015481565b600060036000838152602001908152602001600020905060008160000154036121c257816040517f2c067cd70000000000000000000000000000000000000000000000000000000081526004016121b9919061282a565b60405180910390fd5b348160060160008282546121d691906137ab565b9250508190555060056000838152602001908152602001600020339080600181540180825580915050600190039060005260206000200160009091909190916101000a81548173ffffffffffffffffffffffffffffffffffffffff021916908373ffffffffffffffffffffffffffffffffffffffff160217905550346006600084815260200190815260200160002060003373ffffffffffffffffffffffffffffffffffffffff1673ffffffffffffffffffffffffffffffffffffffff16815260200190815260200160002060008282546122b191906137ab565b925050819055507f0b5b4c52969ff7329ecf7ee536409fda87812b15a8622bc6e8cdeab3aee14a268233346040516122eb93929190613458565b60405180910390a16122fd333461236a565b5050565b600460003373ffffffffffffffffffffffffffffffffffffffff1673ffffffffffffffffffffffffffffffffffffffff16815260200190815260200160002081908060018154018082558091505060019003906000526020600020016000909190919091505550565b600064e8d4a5100082101561238257600190506123d0565b6509184e72a00082101561239957600290506123cf565b655af3107a40008210156123b057600390506123ce565b66038d7ea4c680008210156123c857600490506123cd565b600590505b5b5b5b80600760008573ffffffffffffffffffffffffffffffffffffffff1673ffffffffffffffffffffffffffffffffffffffff168152602001908152602001600020600082825461241f91906137ab565b925050819055507ffc577563f1b9a0461e24abef1e1fcc0d33d3d881f20b5df6dda59de4aae2c82183600760008673ffffffffffffffffffffffffffffffffffffffff1673ffffffffffffffffffffffffffffffffffffffff168152602001908152602001600020546040516124969291906137df565b60405180910390a1505050565b60405180610120016040528060008152602001600073ffffffffffffffffffffffffffffffffffffffff168152602001606081526020016060815260200160608152602001606081526020016000815260200160008152602001600081525090565b50805461251190613040565b6000825580601f106125235750612542565b601f0160209004906000526020600020908101906125419190612545565b5b50565b5b8082111561255e576000816000905550600101612546565b5090565b6000604051905090565b600080fd5b600080fd5b6000819050919050565b61258981612576565b811461259457600080fd5b50565b6000813590506125a681612580565b92915050565b600080fd5b600080fd5b6000601f19601f8301169050919050565b7f4e487b7100000000000000000000000000000000000000000000000000000000600052604160045260246000fd5b6125ff826125b6565b810181811067ffffffffffffffff8211171561261e5761261d6125c7565b5b80604052505050565b6000612631612562565b905061263d82826125f6565b919050565b600067ffffffffffffffff82111561265d5761265c6125c7565b5b612666826125b6565b9050602081019050919050565b82818337600083830152505050565b600061269561269084612642565b612627565b9050828152602081018484840111156126b1576126b06125b1565b5b6126bc848285612673565b509392505050565b600082601f8301126126d9576126d86125ac565b5b81356126e9848260208601612682565b91505092915050565b60008060006060848603121561270b5761270a61256c565b5b600061271986828701612597565b935050602084013567ffffffffffffffff81111561273a57612739612571565b5b612746868287016126c4565b925050604084013567ffffffffffffffff81111561276757612766612571565b5b612773868287016126c4565b9150509250925092565b600073ffffffffffffffffffffffffffffffffffffffff82169050919050565b60006127a88261277d565b9050919050565b6127b88161279d565b81146127c357600080fd5b50565b6000813590506127d5816127af565b92915050565b600080604083850312156127f2576127f161256c565b5b600061280085828601612597565b9250506020612811858286016127c6565b9150509250929050565b61282481612576565b82525050565b600060208201905061283f600083018461281b565b92915050565b60006020828403121561285b5761285a61256c565b5b600061286984828501612597565b91505092915050565b6000602082840312156128885761288761256c565b5b6000612896848285016127c6565b91505092915050565b600081519050919050565b600082825260208201905092915050565b6000819050602082019050919050565b6128d481612576565b82525050565b60006128e683836128cb565b60208301905092915050565b6000602082019050919050565b600061290a8261289f565b61291481856128aa565b935061291f836128bb565b8060005b8381101561295057815161293788826128da565b9750612942836128f2565b925050600181019050612923565b5085935050505092915050565b6000602082019050818103600083015261297781846128ff565b905092915050565b600081519050919050565b600082825260208201905092915050565b6000819050602082019050919050565b6129b48161279d565b82525050565b600081519050919050565b600082825260208201905092915050565b60005b838110156129f45780820151818401526020810190506129d9565b60008484015250505050565b6000612a0b826129ba565b612a1581856129c5565b9350612a258185602086016129d6565b612a2e816125b6565b840191505092915050565b600061012083016000830151612a5260008601826128cb565b506020830151612a6560208601826129ab565b5060408301518482036040860152612a7d8282612a00565b91505060608301518482036060860152612a978282612a00565b91505060808301518482036080860152612ab18282612a00565b91505060a083015184820360a0860152612acb8282612a00565b91505060c0830151612ae060c08601826128cb565b5060e0830151612af360e08601826128cb565b50610100830151612b086101008601826128cb565b508091505092915050565b6000612b1f8383612a39565b905092915050565b6000602082019050919050565b6000612b3f8261297f565b612b49818561298a565b935083602082028501612b5b8561299b565b8060005b85811015612b975784840389528151612b788582612b13565b9450612b8383612b27565b925060208a01995050600181019050612b5f565b50829750879550505050505092915050565b60006020820190508181036000830152612bc38184612b34565b905092915050565b600080600080600060a08688031215612be757612be661256c565b5b600086013567ffffffffffffffff811115612c0557612c04612571565b5b612c11888289016126c4565b955050602086013567ffffffffffffffff811115612c3257612c31612571565b5b612c3e888289016126c4565b945050604086013567ffffffffffffffff811115612c5f57612c5e612571565b5b612c6b888289016126c4565b935050606086013567ffffffffffffffff811115612c8c57612c8b612571565b5b612c98888289016126c4565b9250506080612ca988828901612597565b9150509295509295909350565b612cbf8161279d565b82525050565b600082825260208201905092915050565b6000612ce1826129ba565b612ceb8185612cc5565b9350612cfb8185602086016129d6565b612d04816125b6565b840191505092915050565b600061012082019050612d25600083018c61281b565b612d32602083018b612cb6565b8181036040830152612d44818a612cd6565b90508181036060830152612d588189612cd6565b90508181036080830152612d6c8188612cd6565b905081810360a0830152612d808187612cd6565b9050612d8f60c083018661281b565b612d9c60e083018561281b565b612daa61010083018461281b565b9a9950505050505050505050565b6000602082019050612dcd6000830184612cb6565b92915050565b60008060408385031215612dea57612de961256c565b5b6000612df8858286016127c6565b9250506020612e0985828601612597565b9150509250929050565b60008060408385031215612e2a57612e2961256c565b5b6000612e3885828601612597565b9250506020612e4985828601612597565b9150509250929050565b600061012083016000830151612e6c60008601826128cb565b506020830151612e7f60208601826129ab565b5060408301518482036040860152612e978282612a00565b91505060608301518482036060860152612eb18282612a00565b91505060808301518482036080860152612ecb8282612a00565b91505060a083015184820360a0860152612ee58282612a00565b91505060c0830151612efa60c08601826128cb565b5060e0830151612f0d60e08601826128cb565b50610100830151612f226101008601826128cb565b508091505092915050565b60006020820190508181036000830152612f478184612e53565b905092915050565b60006020820190508181036000830152612f698184612cd6565b905092915050565b7f4f6e6c792063616d706169676e2063726561746f722063616e2075706461746560008201527f2063616d706169676e0000000000000000000000000000000000000000000000602082015250565b6000612fcd602983612cc5565b9150612fd882612f71565b604082019050919050565b6000604082019050612ff86000830184612cb6565b818103602083015261300981612fc0565b905092915050565b7f4e487b7100000000000000000000000000000000000000000000000000000000600052602260045260246000fd5b6000600282049050600182168061305857607f821691505b60208210810361306b5761306a613011565b5b50919050565b60008190508160005260206000209050919050565b60006020601f8301049050919050565b600082821b905092915050565b6000600883026130d37fffffffffffffffffffffffffffffffffffffffffffffffffffffffffffffffff82613096565b6130dd8683613096565b95508019841693508086168417925050509392505050565b6000819050919050565b600061311a61311561311084612576565b6130f5565b612576565b9050919050565b6000819050919050565b613134836130ff565b61314861314082613121565b8484546130a3565b825550505050565b600090565b61315d613150565b61316881848461312b565b505050565b5b8181101561318c57613181600082613155565b60018101905061316e565b5050565b601f8211156131d1576131a281613071565b6131ab84613086565b810160208510156131ba578190505b6131ce6131c685613086565b83018261316d565b50505b505050565b600082821c905092915050565b60006131f4600019846008026131d6565b1980831691505092915050565b600061320d83836131e3565b9150826002028217905092915050565b613226826129ba565b67ffffffffffffffff81111561323f5761323e6125c7565b5b6132498254613040565b613254828285613190565b600060209050601f8311600181146132875760008415613275578287015190505b61327f8582613201565b8655506132e7565b601f19841661329586613071565b60005b828110156132bd57848901518255600182019150602085019450602081019050613298565b868310156132da57848901516132d6601f8916826131e3565b8355505b6001600288020188555050505b505050505050565b6000606082019050613304600083018661281b565b81810360208301526133168185612cd6565b9050818103604083015261332a8184612cd6565b9050949350505050565b7f4f6e6c792063616d706169676e206f776e65722063616e20776974686472617760008201527f20646f6e6174696f6e7300000000000000000000000000000000000000000000602082015250565b6000613390602a83612cc5565b915061339b82613334565b604082019050919050565b600060208201905081810360008301526133bf81613383565b9050919050565b7f546865206d696e696d756d20616d6f756e7420746861742063616e206265207760008201527f697468647261776e20697320302e312065746865720000000000000000000000602082015250565b6000613422603583612cc5565b915061342d826133c6565b604082019050919050565b6000602082019050818103600083015261345181613415565b9050919050565b600060608201905061346d600083018661281b565b61347a6020830185612cb6565b613487604083018461281b565b949350505050565b7f4e487b7100000000000000000000000000000000000000000000000000000000600052603260045260246000fd5b7f4e487b7100000000000000000000000000000000000000000000000000000000600052601160045260246000fd5b60006134f882612576565b91507fffffffffffffffffffffffffffffffffffffffffffffffffffffffffffffffff820361352a576135296134be565b5b600182019050919050565b7f4e6f7420617574686f72697a656420746f2064656c657465207468697320636160008201527f6d706169676e0000000000000000000000000000000000000000000000000000602082015250565b6000613591602683612cc5565b915061359c82613535565b604082019050919050565b60006040820190506135bc6000830184612cb6565b81810360208301526135cd81613584565b905092915050565b60006135e082612576565b91506135eb83612576565b9250828203905081811115613603576136026134be565b5b92915050565b60008154905061361881613040565b9050919050565b81810361362d575050613705565b61363682613609565b67ffffffffffffffff81111561364f5761364e6125c7565b5b6136598254613040565b613664828285613190565b6000601f8311600181146136935760008415613681578287015490505b61368b8582613201565b8655506136fe565b601f1984166136a187613071565b96506136ac86613071565b60005b828110156136d4578489015482556001820191506001850194506020810190506136af565b868310156136f157848901546136ed601f8916826131e3565b8355505b6001600288020188555050505b5050505050505b565b7f4e487b7100000000000000000000000000000000000000000000000000000000600052603160045260246000fd5b600060408201905061374b600083018561281b565b6137586020830184612cb6565b9392505050565b6000608082019050613774600083018761281b565b6137816020830186612cb6565b81810360408301526137938185612cd6565b90506137a2606083018461281b565b95945050505050565b60006137b682612576565b91506137c183612576565b92508282019050808211156137d9576137d86134be565b5b92915050565b60006040820190506137f46000830185612cb6565b613801602083018461281b565b939250505056fea26469706673582212203b790a1b147ca3f9f369ba6135c7e24d033cb4ffafa31604ffa4c4aa8a6699ef64736f6c63430008140033",
  "linkReferences": {},
  "deployedLinkReferences": {}
}