{
  "_format": "hh-sol-artifact-1",
  "contractName": "BitCaffein",
  "sourceName": "contracts/BitCaffein.sol",
  "abi": [
    {
      "inputs": [],
      "stateMutability": "nonpayable",
      "type": "constructor"
    },
    {
      "inputs": [
        {
          "internalType": "uint256",
          "name": "campaignId",
          "type": "uint256"
        }
      ],
      "name": "CampaignNotFound",
      "type": "error"
    },
    {
      "inputs": [
        {
          "internalType": "uint256",
          "name": "campaignId",
          "type": "uint256"
        },
        {
          "internalType": "string",
          "name": "text",
          "type": "string"
        }
      ],
      "name": "InsufficientDonation",
      "type": "error"
    },
    {
      "inputs": [
        {
          "internalType": "address",
          "name": "caller",
          "type": "address"
        },
        {
          "internalType": "string",
          "name": "text",
          "type": "string"
        }
      ],
      "name": "Unauthorized",
      "type": "error"
    },
    {
      "anonymous": false,
      "inputs": [
        {
          "indexed": false,
          "internalType": "uint256",
          "name": "campaignId",
          "type": "uint256"
        },
        {
          "indexed": false,
          "internalType": "address",
          "name": "creator",
          "type": "address"
        },
        {
          "indexed": false,
          "internalType": "string",
          "name": "title",
          "type": "string"
        },
        {
          "indexed": false,
          "internalType": "uint256",
          "name": "goalAmount",
          "type": "uint256"
        }
      ],
      "name": "CampaignCreated",
      "type": "event"
    },
    {
      "anonymous": false,
      "inputs": [
        {
          "indexed": false,
          "internalType": "uint256",
          "name": "campaignId",
          "type": "uint256"
        },
        {
          "indexed": false,
          "internalType": "string",
          "name": "newTitle",
          "type": "string"
        },
        {
          "indexed": false,
          "internalType": "string",
          "name": "newDescription",
          "type": "string"
        }
      ],
      "name": "CampaignUpdated",
      "type": "event"
    },
    {
      "anonymous": false,
      "inputs": [
        {
          "indexed": false,
          "internalType": "uint256",
          "name": "campaignId",
          "type": "uint256"
        },
        {
          "indexed": false,
          "internalType": "address",
          "name": "donor",
          "type": "address"
        },
        {
          "indexed": false,
          "internalType": "uint256",
          "name": "amount",
          "type": "uint256"
        }
      ],
      "name": "DonationReceived",
      "type": "event"
    },
    {
      "anonymous": false,
      "inputs": [
        {
          "indexed": false,
          "internalType": "uint256",
          "name": "campaignId",
          "type": "uint256"
        },
        {
          "indexed": false,
          "internalType": "address",
          "name": "donor",
          "type": "address"
        },
        {
          "indexed": false,
          "internalType": "uint256",
          "name": "amount",
          "type": "uint256"
        }
      ],
      "name": "DonationWithdrawn",
      "type": "event"
    },
    {
      "anonymous": false,
      "inputs": [
        {
          "indexed": false,
          "internalType": "address",
          "name": "user",
          "type": "address"
        },
        {
          "indexed": false,
          "internalType": "uint256",
          "name": "newReputation",
          "type": "uint256"
        }
      ],
      "name": "ReputationUpdated",
      "type": "event"
    },
    {
      "inputs": [
        {
          "internalType": "uint256",
          "name": "",
          "type": "uint256"
        }
      ],
      "name": "_allCampaigns",
      "outputs": [
        {
          "internalType": "uint256",
          "name": "id",
          "type": "uint256"
        },
        {
          "internalType": "address",
          "name": "creator",
          "type": "address"
        },
        {
          "internalType": "string",
          "name": "creatorName",
          "type": "string"
        },
        {
          "internalType": "string",
          "name": "creatorJob",
          "type": "string"
        },
        {
          "internalType": "string",
          "name": "title",
          "type": "string"
        },
        {
          "internalType": "string",
          "name": "description",
          "type": "string"
        },
        {
          "internalType": "uint256",
          "name": "totalAmount",
          "type": "uint256"
        },
        {
          "internalType": "uint256",
          "name": "goalAmount",
          "type": "uint256"
        },
        {
          "internalType": "uint256",
          "name": "startTime",
          "type": "uint256"
        }
      ],
      "stateMutability": "view",
      "type": "function"
    },
    {
      "inputs": [],
      "name": "campaignCounter",
      "outputs": [
        {
          "internalType": "uint256",
          "name": "",
          "type": "uint256"
        }
      ],
      "stateMutability": "view",
      "type": "function"
    },
    {
      "inputs": [
        {
          "internalType": "uint256",
          "name": "",
          "type": "uint256"
        }
      ],
      "name": "campaigns",
      "outputs": [
        {
          "internalType": "uint256",
          "name": "id",
          "type": "uint256"
        },
        {
          "internalType": "address",
          "name": "creator",
          "type": "address"
        },
        {
          "internalType": "string",
          "name": "creatorName",
          "type": "string"
        },
        {
          "internalType": "string",
          "name": "creatorJob",
          "type": "string"
        },
        {
          "internalType": "string",
          "name": "title",
          "type": "string"
        },
        {
          "internalType": "string",
          "name": "description",
          "type": "string"
        },
        {
          "internalType": "uint256",
          "name": "totalAmount",
          "type": "uint256"
        },
        {
          "internalType": "uint256",
          "name": "goalAmount",
          "type": "uint256"
        },
        {
          "internalType": "uint256",
          "name": "startTime",
          "type": "uint256"
        }
      ],
      "stateMutability": "view",
      "type": "function"
    },
    {
      "inputs": [
        {
          "internalType": "string",
          "name": "title",
          "type": "string"
        },
        {
          "internalType": "string",
          "name": "description",
          "type": "string"
        },
        {
          "internalType": "string",
          "name": "creatorName",
          "type": "string"
        },
        {
          "internalType": "string",
          "name": "creatorJob",
          "type": "string"
        },
        {
          "internalType": "uint256",
          "name": "goalAmount",
          "type": "uint256"
        }
      ],
      "name": "createCampaign",
      "outputs": [],
      "stateMutability": "nonpayable",
      "type": "function"
    },
    {
      "inputs": [
        {
          "internalType": "uint256",
          "name": "campaignId",
          "type": "uint256"
        }
      ],
      "name": "deleteCampaign",
      "outputs": [],
      "stateMutability": "nonpayable",
      "type": "function"
    },
    {
      "inputs": [
        {
          "internalType": "uint256",
          "name": "campaignId",
          "type": "uint256"
        }
      ],
      "name": "donation",
      "outputs": [],
      "stateMutability": "payable",
      "type": "function"
    },
    {
      "inputs": [
        {
          "internalType": "uint256",
          "name": "",
          "type": "uint256"
        },
        {
          "internalType": "address",
          "name": "",
          "type": "address"
        }
      ],
      "name": "donorAmounts",
      "outputs": [
        {
          "internalType": "uint256",
          "name": "",
          "type": "uint256"
        }
      ],
      "stateMutability": "view",
      "type": "function"
    },
    {
      "inputs": [
        {
          "internalType": "uint256",
          "name": "",
          "type": "uint256"
        },
        {
          "internalType": "uint256",
          "name": "",
          "type": "uint256"
        }
      ],
      "name": "donors",
      "outputs": [
        {
          "internalType": "address",
          "name": "",
          "type": "address"
        }
      ],
      "stateMutability": "view",
      "type": "function"
    },
    {
      "inputs": [],
      "name": "getAllCampaigns",
      "outputs": [
        {
          "components": [
            {
              "internalType": "uint256",
              "name": "id",
              "type": "uint256"
            },
            {
              "internalType": "address",
              "name": "creator",
              "type": "address"
            },
            {
              "internalType": "string",
              "name": "creatorName",
              "type": "string"
            },
            {
              "internalType": "string",
              "name": "creatorJob",
              "type": "string"
            },
            {
              "internalType": "string",
              "name": "title",
              "type": "string"
            },
            {
              "internalType": "string",
              "name": "description",
              "type": "string"
            },
            {
              "internalType": "uint256",
              "name": "totalAmount",
              "type": "uint256"
            },
            {
              "internalType": "uint256",
              "name": "goalAmount",
              "type": "uint256"
            },
            {
              "internalType": "uint256",
              "name": "startTime",
              "type": "uint256"
            }
          ],
          "internalType": "struct BitCaffein.Campaign[]",
          "name": "",
          "type": "tuple[]"
        }
      ],
      "stateMutability": "view",
      "type": "function"
    },
    {
      "inputs": [
        {
          "internalType": "uint256",
          "name": "campaignId",
          "type": "uint256"
        }
      ],
      "name": "getDonorAmount",
      "outputs": [
        {
          "internalType": "uint256",
          "name": "",
          "type": "uint256"
        }
      ],
      "stateMutability": "view",
      "type": "function"
    },
    {
      "inputs": [
        {
          "internalType": "address",
          "name": "user",
          "type": "address"
        }
      ],
      "name": "getMyCampaign",
      "outputs": [
        {
          "internalType": "uint256[]",
          "name": "",
          "type": "uint256[]"
        }
      ],
      "stateMutability": "view",
      "type": "function"
    },
    {
      "inputs": [
        {
          "internalType": "uint256",
          "name": "campaignID",
          "type": "uint256"
        }
      ],
      "name": "getMyCampaign",
      "outputs": [
        {
          "components": [
            {
              "internalType": "uint256",
              "name": "id",
              "type": "uint256"
            },
            {
              "internalType": "address",
              "name": "creator",
              "type": "address"
            },
            {
              "internalType": "string",
              "name": "creatorName",
              "type": "string"
            },
            {
              "internalType": "string",
              "name": "creatorJob",
              "type": "string"
            },
            {
              "internalType": "string",
              "name": "title",
              "type": "string"
            },
            {
              "internalType": "string",
              "name": "description",
              "type": "string"
            },
            {
              "internalType": "uint256",
              "name": "totalAmount",
              "type": "uint256"
            },
            {
              "internalType": "uint256",
              "name": "goalAmount",
              "type": "uint256"
            },
            {
              "internalType": "uint256",
              "name": "startTime",
              "type": "uint256"
            }
          ],
          "internalType": "struct BitCaffein.Campaign",
          "name": "",
          "type": "tuple"
        }
      ],
      "stateMutability": "view",
      "type": "function"
    },
    {
      "inputs": [
        {
          "internalType": "address",
          "name": "_address",
          "type": "address"
        }
      ],
      "name": "getMyCampaigns",
      "outputs": [
        {
          "components": [
            {
              "internalType": "uint256",
              "name": "id",
              "type": "uint256"
            },
            {
              "internalType": "address",
              "name": "creator",
              "type": "address"
            },
            {
              "internalType": "string",
              "name": "creatorName",
              "type": "string"
            },
            {
              "internalType": "string",
              "name": "creatorJob",
              "type": "string"
            },
            {
              "internalType": "string",
              "name": "title",
              "type": "string"
            },
            {
              "internalType": "string",
              "name": "description",
              "type": "string"
            },
            {
              "internalType": "uint256",
              "name": "totalAmount",
              "type": "uint256"
            },
            {
              "internalType": "uint256",
              "name": "goalAmount",
              "type": "uint256"
            },
            {
              "internalType": "uint256",
              "name": "startTime",
              "type": "uint256"
            }
          ],
          "internalType": "struct BitCaffein.Campaign[]",
          "name": "",
          "type": "tuple[]"
        }
      ],
      "stateMutability": "view",
      "type": "function"
    },
    {
      "inputs": [],
      "name": "getOwner",
      "outputs": [
        {
          "internalType": "address",
          "name": "",
          "type": "address"
        }
      ],
      "stateMutability": "view",
      "type": "function"
    },
    {
      "inputs": [
        {
          "internalType": "address",
          "name": "",
          "type": "address"
        },
        {
          "internalType": "uint256",
          "name": "",
          "type": "uint256"
        }
      ],
      "name": "myCampaigns",
      "outputs": [
        {
          "internalType": "uint256",
          "name": "",
          "type": "uint256"
        }
      ],
      "stateMutability": "view",
      "type": "function"
    },
    {
      "inputs": [],
      "name": "owner",
      "outputs": [
        {
          "internalType": "address",
          "name": "",
          "type": "address"
        }
      ],
      "stateMutability": "view",
      "type": "function"
    },
    {
      "inputs": [
        {
          "internalType": "address",
          "name": "",
          "type": "address"
        }
      ],
      "name": "reputations",
      "outputs": [
        {
          "internalType": "uint256",
          "name": "",
          "type": "uint256"
        }
      ],
      "stateMutability": "view",
      "type": "function"
    },
    {
      "inputs": [],
      "name": "test",
      "outputs": [
        {
          "internalType": "string",
          "name": "",
          "type": "string"
        }
      ],
      "stateMutability": "pure",
      "type": "function"
    },
    {
      "inputs": [
        {
          "internalType": "uint256",
          "name": "campaignId",
          "type": "uint256"
        },
        {
          "internalType": "string",
          "name": "newTitle",
          "type": "string"
        },
        {
          "internalType": "string",
          "name": "newDescription",
          "type": "string"
        }
      ],
      "name": "updateCampaign",
      "outputs": [],
      "stateMutability": "nonpayable",
      "type": "function"
    },
    {
      "inputs": [
        {
          "internalType": "address",
          "name": "user",
          "type": "address"
        },
        {
          "internalType": "uint256",
          "name": "newReputation",
          "type": "uint256"
        }
      ],
      "name": "updateReputation",
      "outputs": [],
      "stateMutability": "nonpayable",
      "type": "function"
    },
    {
      "inputs": [
        {
          "internalType": "uint256",
          "name": "campaignId",
          "type": "uint256"
        }
      ],
      "name": "withdrawDonations",
      "outputs": [],
      "stateMutability": "nonpayable",
      "type": "function"
    }
  ],
  "bytecode": "0x6080604052600060015534801561001557600080fd5b50336000806101000a81548173ffffffffffffffffffffffffffffffffffffffff021916908373ffffffffffffffffffffffffffffffffffffffff1602179055506130c2806100656000396000f3fe60806040526004361061012a5760003560e01c806383bd62dd116100ab578063b7681c1f1161006f578063b7681c1f1461044c578063ccc0bde414610489578063f5c91a08146104c6578063f8a8fd6d146104ef578063fca604d71461051a578063fdac3254146105455761012a565b806383bd62dd1461035157806386cdf6041461038e578063893d20e8146103b95780638da5cb5b146103e45780639f8d707a1461040f5761012a565b80634bc79a2e116100f25780634bc79a2e1461024057806364c909661461027d57806375970193146102ba5780637a2453d9146102e35780637c9945501461030c5761012a565b806306fa15a71461012f5780631026373f1461016c578063141961bc146101955780631754bdbf146101da578063388a7ec114610217575b600080fd5b34801561013b57600080fd5b5061015660048036038101906101519190612082565b610561565b60405161016391906120c8565b60405180910390f35b34801561017857600080fd5b50610193600480360381019061018e9190612255565b610579565b005b3480156101a157600080fd5b506101bc60048036038101906101b791906122e0565b6106d2565b6040516101d19998979695949392919061239b565b60405180910390f35b3480156101e657600080fd5b5061020160048036038101906101fc9190612082565b610960565b60405161020e9190612502565b60405180910390f35b34801561022357600080fd5b5061023e600480360381019061023991906122e0565b6109f7565b005b34801561024c57600080fd5b5061026760048036038101906102629190612524565b610bce565b60405161027491906120c8565b60405180910390f35b34801561028957600080fd5b506102a4600480360381019061029f9190612082565b610bff565b6040516102b19190612759565b60405180910390f35b3480156102c657600080fd5b506102e160048036038101906102dc91906122e0565b610ffc565b005b3480156102ef57600080fd5b5061030a6004803603810190610305919061277b565b610fff565b005b34801561031857600080fd5b50610333600480360381019061032e91906122e0565b61129d565b6040516103489998979695949392919061239b565b60405180910390f35b34801561035d57600080fd5b5061037860048036038101906103739190612866565b61153b565b60405161038591906128a6565b60405180910390f35b34801561039a57600080fd5b506103a3611589565b6040516103b09190612759565b60405180910390f35b3480156103c557600080fd5b506103ce61192c565b6040516103db91906128a6565b60405180910390f35b3480156103f057600080fd5b506103f9611955565b60405161040691906128a6565b60405180910390f35b34801561041b57600080fd5b50610436600480360381019061043191906122e0565b611979565b60405161044391906120c8565b60405180910390f35b34801561045857600080fd5b50610473600480360381019061046e91906122e0565b6119d3565b604051610480919061299b565b60405180910390f35b34801561049557600080fd5b506104b060048036038101906104ab91906129bd565b611cc7565b6040516104bd91906120c8565b60405180910390f35b3480156104d257600080fd5b506104ed60048036038101906104e89190612524565b611cec565b005b3480156104fb57600080fd5b50610504611d6d565b60405161051191906129fd565b60405180910390f35b34801561052657600080fd5b5061052f611daa565b60405161053c91906120c8565b60405180910390f35b61055f600480360381019061055a91906122e0565b611db0565b005b60076020528060005260406000206000915090505481565b600060036000858152602001908152602001600020905060008160000154036105d957836040517f2c067cd70000000000000000000000000000000000000000000000000000000081526004016105d091906120c8565b60405180910390fd5b3373ffffffffffffffffffffffffffffffffffffffff168160010160009054906101000a900473ffffffffffffffffffffffffffffffffffffffff1673ffffffffffffffffffffffffffffffffffffffff161461066d57336040517fa35b150b0000000000000000000000000000000000000000000000000000000081526004016106649190612a91565b60405180910390fd5b8281600401908161067e9190612ccb565b50818160050190816106909190612ccb565b507fdc77f154e3ab7d771db26c038d44428f67b6aa1cfb32f824982d2300ba6b090a8484846040516106c493929190612d9d565b60405180910390a150505050565b60036020528060005260406000206000915090508060000154908060010160009054906101000a900473ffffffffffffffffffffffffffffffffffffffff169080600201805461072190612aee565b80601f016020809104026020016040519081016040528092919081815260200182805461074d90612aee565b801561079a5780601f1061076f5761010080835404028352916020019161079a565b820191906000526020600020905b81548152906001019060200180831161077d57829003601f168201915b5050505050908060030180546107af90612aee565b80601f01602080910402602001604051908101604052809291908181526020018280546107db90612aee565b80156108285780601f106107fd57610100808354040283529160200191610828565b820191906000526020600020905b81548152906001019060200180831161080b57829003601f168201915b50505050509080600401805461083d90612aee565b80601f016020809104026020016040519081016040528092919081815260200182805461086990612aee565b80156108b65780601f1061088b576101008083540402835291602001916108b6565b820191906000526020600020905b81548152906001019060200180831161089957829003601f168201915b5050505050908060050180546108cb90612aee565b80601f01602080910402602001604051908101604052809291908181526020018280546108f790612aee565b80156109445780601f1061091957610100808354040283529160200191610944565b820191906000526020600020905b81548152906001019060200180831161092757829003601f168201915b5050505050908060060154908060070154908060080154905089565b6060600460008373ffffffffffffffffffffffffffffffffffffffff1673ffffffffffffffffffffffffffffffffffffffff1681526020019081526020016000208054806020026020016040519081016040528092919081815260200182805480156109eb57602002820191906000526020600020905b8154815260200190600101908083116109d7575b50505050509050919050565b60006003600083815260200190815260200160002090506000816000015403610a5757816040517f2c067cd7000000000000000000000000000000000000000000000000000000008152600401610a4e91906120c8565b60405180910390fd5b3373ffffffffffffffffffffffffffffffffffffffff168160010160009054906101000a900473ffffffffffffffffffffffffffffffffffffffff1673ffffffffffffffffffffffffffffffffffffffff1614610ae9576040517f08c379a0000000000000000000000000000000000000000000000000000000008152600401610ae090612e54565b60405180910390fd5b60008160060154905067016345785d8a0000811015610b3d576040517f08c379a0000000000000000000000000000000000000000000000000000000008152600401610b3490612ee6565b60405180910390fd5b600082600601819055503373ffffffffffffffffffffffffffffffffffffffff166108fc829081150290604051600060405180830381858888f19350505050158015610b8d573d6000803e3d6000fd5b507fcb1554278e74467e3a03605183022eced5dc116a9d067e47eaf8447202dbc0ae833383604051610bc193929190612f06565b60405180910390a1505050565b60046020528160005260406000208181548110610bea57600080fd5b90600052602060002001600091509150505481565b60606000600280549050905060008167ffffffffffffffff811115610c2757610c2661212a565b5b604051908082528060200260200182016040528015610c6057816020015b610c4d611fae565b815260200190600190039081610c455790505b50905060005b82811015610ff157600060028281548110610c8457610c83612f3d565b5b906000526020600020906009020190508573ffffffffffffffffffffffffffffffffffffffff168160010160009054906101000a900473ffffffffffffffffffffffffffffffffffffffff1673ffffffffffffffffffffffffffffffffffffffff1603610fdd578060405180610120016040529081600082015481526020016001820160009054906101000a900473ffffffffffffffffffffffffffffffffffffffff1673ffffffffffffffffffffffffffffffffffffffff1673ffffffffffffffffffffffffffffffffffffffff168152602001600282018054610d6890612aee565b80601f0160208091040260200160405190810160405280929190818152602001828054610d9490612aee565b8015610de15780601f10610db657610100808354040283529160200191610de1565b820191906000526020600020905b815481529060010190602001808311610dc457829003601f168201915b50505050508152602001600382018054610dfa90612aee565b80601f0160208091040260200160405190810160405280929190818152602001828054610e2690612aee565b8015610e735780601f10610e4857610100808354040283529160200191610e73565b820191906000526020600020905b815481529060010190602001808311610e5657829003601f168201915b50505050508152602001600482018054610e8c90612aee565b80601f0160208091040260200160405190810160405280929190818152602001828054610eb890612aee565b8015610f055780601f10610eda57610100808354040283529160200191610f05565b820191906000526020600020905b815481529060010190602001808311610ee857829003601f168201915b50505050508152602001600582018054610f1e90612aee565b80601f0160208091040260200160405190810160405280929190818152602001828054610f4a90612aee565b8015610f975780601f10610f6c57610100808354040283529160200191610f97565b820191906000526020600020905b815481529060010190602001808311610f7a57829003601f168201915b505050505081526020016006820154815260200160078201548152602001600882015481525050838381518110610fd157610fd0612f3d565b5b60200260200101819052505b508080610fe990612f9b565b915050610c66565b508092505050919050565b50565b6001600081548092919061101290612f9b565b9190505550600060405180610120016040528060015481526020013373ffffffffffffffffffffffffffffffffffffffff16815260200185815260200184815260200187815260200186815260200160008152602001838152602001428152509050806003600060015481526020019081526020016000206000820151816000015560208201518160010160006101000a81548173ffffffffffffffffffffffffffffffffffffffff021916908373ffffffffffffffffffffffffffffffffffffffff16021790555060408201518160020190816110f09190612ccb565b5060608201518160030190816111069190612ccb565b50608082015181600401908161111c9190612ccb565b5060a08201518160050190816111329190612ccb565b5060c0820151816006015560e082015181600701556101008201518160080155905050611160600154611f45565b60028190806001815401808255809150506001900390600052602060002090600902016000909190919091506000820151816000015560208201518160010160006101000a81548173ffffffffffffffffffffffffffffffffffffffff021916908373ffffffffffffffffffffffffffffffffffffffff16021790555060408201518160020190816111f29190612ccb565b5060608201518160030190816112089190612ccb565b50608082015181600401908161121e9190612ccb565b5060a08201518160050190816112349190612ccb565b5060c0820151816006015560e08201518160070155610100820151816008015550507f825fb10f7650ed27414d6f86acdf7d5946927d9b25001f045f1a2435deec02fe60015433888560405161128d9493929190612fe3565b60405180910390a1505050505050565b600281815481106112ad57600080fd5b90600052602060002090600902016000915090508060000154908060010160009054906101000a900473ffffffffffffffffffffffffffffffffffffffff16908060020180546112fc90612aee565b80601f016020809104026020016040519081016040528092919081815260200182805461132890612aee565b80156113755780601f1061134a57610100808354040283529160200191611375565b820191906000526020600020905b81548152906001019060200180831161135857829003601f168201915b50505050509080600301805461138a90612aee565b80601f01602080910402602001604051908101604052809291908181526020018280546113b690612aee565b80156114035780601f106113d857610100808354040283529160200191611403565b820191906000526020600020905b8154815290600101906020018083116113e657829003601f168201915b50505050509080600401805461141890612aee565b80601f016020809104026020016040519081016040528092919081815260200182805461144490612aee565b80156114915780601f1061146657610100808354040283529160200191611491565b820191906000526020600020905b81548152906001019060200180831161147457829003601f168201915b5050505050908060050180546114a690612aee565b80601f01602080910402602001604051908101604052809291908181526020018280546114d290612aee565b801561151f5780601f106114f45761010080835404028352916020019161151f565b820191906000526020600020905b81548152906001019060200180831161150257829003601f168201915b5050505050908060060154908060070154908060080154905089565b6005602052816000526040600020818154811061155757600080fd5b906000526020600020016000915091509054906101000a900473ffffffffffffffffffffffffffffffffffffffff1681565b60606000600280549050905060008167ffffffffffffffff8111156115b1576115b061212a565b5b6040519080825280602002602001820160405280156115ea57816020015b6115d7611fae565b8152602001906001900390816115cf5790505b50905060005b828110156119235760006002828154811061160e5761160d612f3d565b5b906000526020600020906009020190508060405180610120016040529081600082015481526020016001820160009054906101000a900473ffffffffffffffffffffffffffffffffffffffff1673ffffffffffffffffffffffffffffffffffffffff1673ffffffffffffffffffffffffffffffffffffffff16815260200160028201805461169b90612aee565b80601f01602080910402602001604051908101604052809291908181526020018280546116c790612aee565b80156117145780601f106116e957610100808354040283529160200191611714565b820191906000526020600020905b8154815290600101906020018083116116f757829003601f168201915b5050505050815260200160038201805461172d90612aee565b80601f016020809104026020016040519081016040528092919081815260200182805461175990612aee565b80156117a65780601f1061177b576101008083540402835291602001916117a6565b820191906000526020600020905b81548152906001019060200180831161178957829003601f168201915b505050505081526020016004820180546117bf90612aee565b80601f01602080910402602001604051908101604052809291908181526020018280546117eb90612aee565b80156118385780601f1061180d57610100808354040283529160200191611838565b820191906000526020600020905b81548152906001019060200180831161181b57829003601f168201915b5050505050815260200160058201805461185190612aee565b80601f016020809104026020016040519081016040528092919081815260200182805461187d90612aee565b80156118ca5780601f1061189f576101008083540402835291602001916118ca565b820191906000526020600020905b8154815290600101906020018083116118ad57829003601f168201915b50505050508152602001600682015481526020016007820154815260200160088201548152505083838151811061190457611903612f3d565b5b602002602001018190525050808061191b90612f9b565b9150506115f0565b50809250505090565b60008060009054906101000a900473ffffffffffffffffffffffffffffffffffffffff16905090565b60008054906101000a900473ffffffffffffffffffffffffffffffffffffffff1681565b60006006600083815260200190815260200160002060003373ffffffffffffffffffffffffffffffffffffffff1673ffffffffffffffffffffffffffffffffffffffff168152602001908152602001600020549050919050565b6119db611fae565b6003600083815260200190815260200160002060405180610120016040529081600082015481526020016001820160009054906101000a900473ffffffffffffffffffffffffffffffffffffffff1673ffffffffffffffffffffffffffffffffffffffff1673ffffffffffffffffffffffffffffffffffffffff168152602001600282018054611a6a90612aee565b80601f0160208091040260200160405190810160405280929190818152602001828054611a9690612aee565b8015611ae35780601f10611ab857610100808354040283529160200191611ae3565b820191906000526020600020905b815481529060010190602001808311611ac657829003601f168201915b50505050508152602001600382018054611afc90612aee565b80601f0160208091040260200160405190810160405280929190818152602001828054611b2890612aee565b8015611b755780601f10611b4a57610100808354040283529160200191611b75565b820191906000526020600020905b815481529060010190602001808311611b5857829003601f168201915b50505050508152602001600482018054611b8e90612aee565b80601f0160208091040260200160405190810160405280929190818152602001828054611bba90612aee565b8015611c075780601f10611bdc57610100808354040283529160200191611c07565b820191906000526020600020905b815481529060010190602001808311611bea57829003601f168201915b50505050508152602001600582018054611c2090612aee565b80601f0160208091040260200160405190810160405280929190818152602001828054611c4c90612aee565b8015611c995780601f10611c6e57610100808354040283529160200191611c99565b820191906000526020600020905b815481529060010190602001808311611c7c57829003601f168201915b5050505050815260200160068201548152602001600782015481526020016008820154815250509050919050565b6006602052816000526040600020602052806000526040600020600091509150505481565b80600760008473ffffffffffffffffffffffffffffffffffffffff1673ffffffffffffffffffffffffffffffffffffffff168152602001908152602001600020819055507ffc577563f1b9a0461e24abef1e1fcc0d33d3d881f20b5df6dda59de4aae2c8218282604051611d6192919061302f565b60405180910390a15050565b60606040518060400160405280600b81526020017f68656c6c6f20427572616b000000000000000000000000000000000000000000815250905090565b60015481565b60006003600083815260200190815260200160002090506000816000015403611e1057816040517f2c067cd7000000000000000000000000000000000000000000000000000000008152600401611e0791906120c8565b60405180910390fd5b34816006016000828254611e249190613058565b9250508190555060056000838152602001908152602001600020339080600181540180825580915050600190039060005260206000200160009091909190916101000a81548173ffffffffffffffffffffffffffffffffffffffff021916908373ffffffffffffffffffffffffffffffffffffffff160217905550346006600084815260200190815260200160002060003373ffffffffffffffffffffffffffffffffffffffff1673ffffffffffffffffffffffffffffffffffffffff1681526020019081526020016000206000828254611eff9190613058565b925050819055507f0b5b4c52969ff7329ecf7ee536409fda87812b15a8622bc6e8cdeab3aee14a26823334604051611f3993929190612f06565b60405180910390a15050565b600460003373ffffffffffffffffffffffffffffffffffffffff1673ffffffffffffffffffffffffffffffffffffffff16815260200190815260200160002081908060018154018082558091505060019003906000526020600020016000909190919091505550565b60405180610120016040528060008152602001600073ffffffffffffffffffffffffffffffffffffffff168152602001606081526020016060815260200160608152602001606081526020016000815260200160008152602001600081525090565b6000604051905090565b600080fd5b600080fd5b600073ffffffffffffffffffffffffffffffffffffffff82169050919050565b600061204f82612024565b9050919050565b61205f81612044565b811461206a57600080fd5b50565b60008135905061207c81612056565b92915050565b6000602082840312156120985761209761201a565b5b60006120a68482850161206d565b91505092915050565b6000819050919050565b6120c2816120af565b82525050565b60006020820190506120dd60008301846120b9565b92915050565b6120ec816120af565b81146120f757600080fd5b50565b600081359050612109816120e3565b92915050565b600080fd5b600080fd5b6000601f19601f8301169050919050565b7f4e487b7100000000000000000000000000000000000000000000000000000000600052604160045260246000fd5b61216282612119565b810181811067ffffffffffffffff821117156121815761218061212a565b5b80604052505050565b6000612194612010565b90506121a08282612159565b919050565b600067ffffffffffffffff8211156121c0576121bf61212a565b5b6121c982612119565b9050602081019050919050565b82818337600083830152505050565b60006121f86121f3846121a5565b61218a565b90508281526020810184848401111561221457612213612114565b5b61221f8482856121d6565b509392505050565b600082601f83011261223c5761223b61210f565b5b813561224c8482602086016121e5565b91505092915050565b60008060006060848603121561226e5761226d61201a565b5b600061227c868287016120fa565b935050602084013567ffffffffffffffff81111561229d5761229c61201f565b5b6122a986828701612227565b925050604084013567ffffffffffffffff8111156122ca576122c961201f565b5b6122d686828701612227565b9150509250925092565b6000602082840312156122f6576122f561201a565b5b6000612304848285016120fa565b91505092915050565b61231681612044565b82525050565b600081519050919050565b600082825260208201905092915050565b60005b8381101561235657808201518184015260208101905061233b565b60008484015250505050565b600061236d8261231c565b6123778185612327565b9350612387818560208601612338565b61239081612119565b840191505092915050565b6000610120820190506123b1600083018c6120b9565b6123be602083018b61230d565b81810360408301526123d0818a612362565b905081810360608301526123e48189612362565b905081810360808301526123f88188612362565b905081810360a083015261240c8187612362565b905061241b60c08301866120b9565b61242860e08301856120b9565b6124366101008301846120b9565b9a9950505050505050505050565b600081519050919050565b600082825260208201905092915050565b6000819050602082019050919050565b612479816120af565b82525050565b600061248b8383612470565b60208301905092915050565b6000602082019050919050565b60006124af82612444565b6124b9818561244f565b93506124c483612460565b8060005b838110156124f55781516124dc888261247f565b97506124e783612497565b9250506001810190506124c8565b5085935050505092915050565b6000602082019050818103600083015261251c81846124a4565b905092915050565b6000806040838503121561253b5761253a61201a565b5b60006125498582860161206d565b925050602061255a858286016120fa565b9150509250929050565b600081519050919050565b600082825260208201905092915050565b6000819050602082019050919050565b61259981612044565b82525050565b600082825260208201905092915050565b60006125bb8261231c565b6125c5818561259f565b93506125d5818560208601612338565b6125de81612119565b840191505092915050565b6000610120830160008301516126026000860182612470565b5060208301516126156020860182612590565b506040830151848203604086015261262d82826125b0565b9150506060830151848203606086015261264782826125b0565b9150506080830151848203608086015261266182826125b0565b91505060a083015184820360a086015261267b82826125b0565b91505060c083015161269060c0860182612470565b5060e08301516126a360e0860182612470565b506101008301516126b8610100860182612470565b508091505092915050565b60006126cf83836125e9565b905092915050565b6000602082019050919050565b60006126ef82612564565b6126f9818561256f565b93508360208202850161270b85612580565b8060005b85811015612747578484038952815161272885826126c3565b9450612733836126d7565b925060208a0199505060018101905061270f565b50829750879550505050505092915050565b6000602082019050818103600083015261277381846126e4565b905092915050565b600080600080600060a086880312156127975761279661201a565b5b600086013567ffffffffffffffff8111156127b5576127b461201f565b5b6127c188828901612227565b955050602086013567ffffffffffffffff8111156127e2576127e161201f565b5b6127ee88828901612227565b945050604086013567ffffffffffffffff81111561280f5761280e61201f565b5b61281b88828901612227565b935050606086013567ffffffffffffffff81111561283c5761283b61201f565b5b61284888828901612227565b9250506080612859888289016120fa565b9150509295509295909350565b6000806040838503121561287d5761287c61201a565b5b600061288b858286016120fa565b925050602061289c858286016120fa565b9150509250929050565b60006020820190506128bb600083018461230d565b92915050565b6000610120830160008301516128da6000860182612470565b5060208301516128ed6020860182612590565b506040830151848203604086015261290582826125b0565b9150506060830151848203606086015261291f82826125b0565b9150506080830151848203608086015261293982826125b0565b91505060a083015184820360a086015261295382826125b0565b91505060c083015161296860c0860182612470565b5060e083015161297b60e0860182612470565b50610100830151612990610100860182612470565b508091505092915050565b600060208201905081810360008301526129b581846128c1565b905092915050565b600080604083850312156129d4576129d361201a565b5b60006129e2858286016120fa565b92505060206129f38582860161206d565b9150509250929050565b60006020820190508181036000830152612a178184612362565b905092915050565b7f4f6e6c792063616d706169676e2063726561746f722063616e2075706461746560008201527f2063616d706169676e0000000000000000000000000000000000000000000000602082015250565b6000612a7b602983612327565b9150612a8682612a1f565b604082019050919050565b6000604082019050612aa6600083018461230d565b8181036020830152612ab781612a6e565b905092915050565b7f4e487b7100000000000000000000000000000000000000000000000000000000600052602260045260246000fd5b60006002820490506001821680612b0657607f821691505b602082108103612b1957612b18612abf565b5b50919050565b60008190508160005260206000209050919050565b60006020601f8301049050919050565b600082821b905092915050565b600060088302612b817fffffffffffffffffffffffffffffffffffffffffffffffffffffffffffffffff82612b44565b612b8b8683612b44565b95508019841693508086168417925050509392505050565b6000819050919050565b6000612bc8612bc3612bbe846120af565b612ba3565b6120af565b9050919050565b6000819050919050565b612be283612bad565b612bf6612bee82612bcf565b848454612b51565b825550505050565b600090565b612c0b612bfe565b612c16818484612bd9565b505050565b5b81811015612c3a57612c2f600082612c03565b600181019050612c1c565b5050565b601f821115612c7f57612c5081612b1f565b612c5984612b34565b81016020851015612c68578190505b612c7c612c7485612b34565b830182612c1b565b50505b505050565b600082821c905092915050565b6000612ca260001984600802612c84565b1980831691505092915050565b6000612cbb8383612c91565b9150826002028217905092915050565b612cd48261231c565b67ffffffffffffffff811115612ced57612cec61212a565b5b612cf78254612aee565b612d02828285612c3e565b600060209050601f831160018114612d355760008415612d23578287015190505b612d2d8582612caf565b865550612d95565b601f198416612d4386612b1f565b60005b82811015612d6b57848901518255600182019150602085019450602081019050612d46565b86831015612d885784890151612d84601f891682612c91565b8355505b6001600288020188555050505b505050505050565b6000606082019050612db260008301866120b9565b8181036020830152612dc48185612362565b90508181036040830152612dd88184612362565b9050949350505050565b7f4f6e6c792063616d706169676e206f776e65722063616e20776974686472617760008201527f20646f6e6174696f6e7300000000000000000000000000000000000000000000602082015250565b6000612e3e602a83612327565b9150612e4982612de2565b604082019050919050565b60006020820190508181036000830152612e6d81612e31565b9050919050565b7f546865206d696e696d756d20616d6f756e7420746861742063616e206265207760008201527f697468647261776e20697320302e312065746865720000000000000000000000602082015250565b6000612ed0603583612327565b9150612edb82612e74565b604082019050919050565b60006020820190508181036000830152612eff81612ec3565b9050919050565b6000606082019050612f1b60008301866120b9565b612f28602083018561230d565b612f3560408301846120b9565b949350505050565b7f4e487b7100000000000000000000000000000000000000000000000000000000600052603260045260246000fd5b7f4e487b7100000000000000000000000000000000000000000000000000000000600052601160045260246000fd5b6000612fa6826120af565b91507fffffffffffffffffffffffffffffffffffffffffffffffffffffffffffffffff8203612fd857612fd7612f6c565b5b600182019050919050565b6000608082019050612ff860008301876120b9565b613005602083018661230d565b81810360408301526130178185612362565b905061302660608301846120b9565b95945050505050565b6000604082019050613044600083018561230d565b61305160208301846120b9565b9392505050565b6000613063826120af565b915061306e836120af565b925082820190508082111561308657613085612f6c565b5b9291505056fea2646970667358221220c648a7f1a35ad3a9a1a3589fae8f63a36ad6e497c19fd6ddb8a0fe20ceaade9064736f6c63430008140033",
  "linkReferences": {},
  "deployedLinkReferences": {}
}